:060000000A128A110E280D
:10000800FE00030EF7000408F8000A08F9000A16B3
:100018008A119F2E0A128A1111288317B230FD0007
:100028001D30FE002130FF00903084000A168A152A
:1000380068240A128A110A168A151A240A128A11C1
:10004800FB000A168A151B240A128A11FC00B2301A
:100058008400D2300A168A152B240A128A118313B7
:10006800A0308400C8300A168A152B248316EA01AA
:10007800FD01FA0183010A128A11452ACF003030A6
:10008800C0004008C7002F08C1002E08C000AE0AF3
:100098000319AF0A4108FF00400884000A168A11B4
:1000A80000200A128A11C2004208CE004E08031925
:1000B800402A25304E0603196D284E08C0004F0807
:1000C80084004008831780000130C0004008CF0733
:1000D8004728CC01CD01C6012F08FF002E08840057
:1000E8000A168A1100200A128A110A168A1545244E
:1000F8000A128A11031C3C29CC01CD010A30A00048
:100108000030A1004D08A3004C08A2000A168A1569
:1001180000250A128A112108CD002008CC002F08DA
:10012800FF002E0884000A168A1100200A128A117C
:10013800D03EC000FF3003180030C1004008CC0793
:100148000318CD0A4108CD070130AE070318AF0ADE
:100158000030AF072F08FF002E0884000A168A1106
:1001680000200A128A110A168A1545240A128A11D1
:10017800031C3C2982284708840083130008C40014
:10018800840A00088403C5000230C0004008C7077D
:1001980044084504031DD428B530C4009130C50077
:1001A800C801C90148084407840045080318450ADE
:1001B800FF000A168A1100200A128A11003A031950
:1001C800EC280130C8070318C90A0030C907D62827
:1001D8004D084902031DF2284C0848020318FB2861
:1001E8004808CC024908031CCD03CD02FD28CC01E8
:1001F800CD01FF30CC070318CD0AFF30CD074C0ADC
:1002080003194D0A03192D292030C0004F08840016
:100218004008831780000130C0004008CF07FD2840
:100228004508FF00440884000A168A1100200A12B3
:100238008A11C0004F0884004008831780000130ED
:10024800C4070318C50A0030C5070130C0004008BC
:10025800CF070130C8020030031CC903C902480A8D
:10026800031D1429490A03194728142946175D292B
:100278002F08C1002E08C000AE0A0319AF0A4108B2
:10028800FF00400884000A168A1100200A128A1109
:10029800CE00003A0319402A643A03195D290D3A41
:1002A80003195D291A3A0319BF28063A03193A298E
:1002B8004728461B77294708840083130008CA008B
:1002C800840A0008CB000230C0004008C707CB1FD3
:1002D80083290330C0004008C604CA09CB09CA0AEA
:1002E8000319CB0A83294708840083130008CA002E
:1002F800840A0008CB000230C0004008C707CE01BE
:10030800CE0A4E08C0004007523E840090300318C1
:10031800013EFF000A168A1100200A128A11C10044
:100328000A168A1100200A128A11C20042084B02DA
:10033800031DA02941084A02031CAA290130C00054
:100348004008CE0705304E06031D85294C084D048C
:100358000319B829460803390319B829FF30CC070F
:100368000318CD0AFF30CD074D08803A803C031DA5
:10037800BF294C084E020318CD29831203134E08D7
:10038800C000C1014008CC024108031CCD03CD02C6
:10039800D12983120313CC01CD014C084D04031954
:1003A800EA292030C0004F088400400883178000E5
:1003B8000130C0004008CF07FF30CC070318CD0A32
:1003C800FF30CD074C084D04031DD52946080339D5
:1003D8000319F9292D30C0004F08840040088317FD
:1003E80080000130C0004008CF074E08C000400818
:1003F800C300FF30C0004008C307430A0319472859
:100408000A30A8000030A9004308C0004007523E47
:10041800840090300318013EFF000A168A1100205C
:100428000A128A11A0000A168A1100200A128A11DB
:10043800A1004B08A3004A08A2000A168A155826EC
:100448000A128A112108AB002008AA000A168A1588
:1004580026260A128A112808303EC1004108CE001B
:100468004E08C0004F088400400883178000013000
:10047800C0004008CF07FD294F088400831780017A
:1004880008000A168A11B6230A128A110A168A1552
:100498009C240A128A110A168A1139230A128A110F
:1004A80000300A168A15D4260A128A11AC010030C7
:1004B8000A168A15CB240A128A11453083120313AF
:1004C800AE009130AF000A168A15B1270A128A11B8
:1004D8006430A6000030A7000A168A159A250A1269
:1004E8008A11FF3A031DA02A8316E9016908E6006C
:1004F800E70166088312A600831667088312A7001F
:10050800A8010A128A11CB270A128A110130831610
:10051800E6006608E90764306902031C7A2A643039
:100528008312A6000030A700A801A80A0A128A119F
:10053800CB270A128A11332B6430A6000030A7009B
:100548000A168A159A250A128A11013A031D332BB5
:100558000030A600A7000A168A159A250A128A11E1
:100568008316E6006608C40001308312A600003036
:10057800A7000A168A159A250A128A118316E60018
:10058800E7016608B4006708B50008300310B40D29
:10059800B50DFF3E031DCA2A02308312A6000030A3
:1005A800A7000A168A159A250A128A118316E600E8
:1005B800E7016608B4046708B50403308312A6008F
:1005C8000030A7000A168A159A250A128A1183167E
:1005D800E600E7016608B2006708B30008300310B8
:1005E800B20DB30DFF3E031DF32A04308312A6009B
:1005F8000030A7000A168A159A250A128A1183164E
:10060800E600E7016608B2046708B3040530831200
:10061800A6000030A7000A168A159A250A128A1120
:100628008316E600E7016608B0006708B1000830E5
:100638000310B00DB10DFF3E031D1C2B06308312B5
:10064800A6000030A7000A168A159A250A128A11F0
:100658008316E600E7016608B0046708B1040630AF
:1006680083160313E8001330E700AD30E600E60B0D
:100678003B2BE70B3B2BE80B3B2BFA13831603139F
:100688006A127A136A100A168A1562270A128A11E0
:1006980025080A168A114E270A128A118316E600BF
:1006A8006608B90026080A168A114E270A128A1106
:1006B8008316E6006608B8000A128A111B240A127B
:1006C8008A11FA1D832BF03083162006031D832B15
:1006D8002108031D832B0F302306031D832B1130A4
:1006E80022060319FA1A7B2BC315FA16832B22301C
:1006F8002206031D832BF730E6006608C305831620
:10070800C418C31DA42BFA1F8F2B0130AE07031882
:10071800AF0A0030AF073508803AE6002F08803A64
:100728006602031D992B2E0834020318B02BF730EC
:1007380083160313E6006608C305AE01AF01B02BAC
:10074800C418B02BC31DAA2BC315B02BC319B02BCB
:10075800F730E6006608C30583160313C41DEF2BA4
:100768007A1FBC2B0130AC070318AD0A0030AD0767
:10077800441EC72B3808803A6B3E031C431AC72B0C
:100788004316AC01AD01431AD92B2D08803AE60077
:100798003308803A6602031DD32B32082C02031C4F
:1007A800EF2B831603134316ED2B431EEF2B2D0857
:1007B800803AE6003108803A6602031DE52B3008CE
:1007C8002C02031CEF2BEF3083160313E600660898
:1007D800C305AC01AD01831203138619061EF92B5C
:1007E8008316C31AF92BC316052C8312861DFE2BFC
:1007F800061A052C8316C31E052CDF30E600660892
:10080800C3058312861A0A2C061F0F2C8316431B56
:100818000F2C4317412B8312861E061B412B831670
:10082800431F412BBF30E6006608C305412B3E033A
:1008380003197A18DC2C7B037C04031D252C023059
:10084800D32C7C08803AFF0080307F02031D2E2CB9
:1008580014307B02031C6C2C8316031728088312A0
:100868000313D000D1015008A0005108A1000A309C
:10087800A2000030A3000A168A1500250A128A1160
:100888002008093ED20021080318013E003ED3008B
:100898007C08803AD4005308803A5402031D562C31
:1008A80052087B0203186C2C0A3083120313A00031
:1008B8000030A1007C08A3007B08A2000A168A1158
:1008C8001A220A128A112108FC002008FB00D62CE3
:1008D8007C08803AFF0080307F02031D752C64304D
:1008E8007B02031C9F2C831603172808831203130B
:1008F800D000D1015008A0005108A1006430A20026
:100908000030A3000A168A1500250A128A11200849
:10091800633ED20021080318013E003ED3007C0844
:10092800803AD4005308803A5402031D9D2C520883
:100938007B02031C582C7C08803AFF0083307F021E
:10094800031DA82CE8307B02031CD22C8316031746
:10095800280883120313D000D1015008A0005108C1
:10096800A100E830A2000330A3000A168A1500256A
:100978000A128A112008E73ED20021080318013E16
:10098800033ED3007C08803AD4005308803A5402CE
:10099800031DD02C52087B02031C582C0130FB008D
:1009A8000030FC007A14FA107A110A128A15EE291E
:1009B80002303E0603197A182A2D7C08803AFF0077
:1009C80080307F02031DEA2C02307B020318F42CCE
:1009D800831603172808831203130A128A152A2973
:1009E8007C08803AFF0080307F02031DFD2C0A300E
:1009F8007B02031C2D2D7C08803AFF0080307F028B
:100A0800031D082D64307B0203182D2D7C08803AC5
:100A1800803C031D132D7B08831603133A020A1228
:100A28008A15031C3828831603133B08A83E840044
:100A38003A08831700078312D000D101D10D50085E
:100A4800FF3EFB0051080A128A15BE280A128A15B1
:100A5800CE280A128A153E283808BE003908BF0079
:100A68003A08C00003103F0D400DC1004108C40002
:100A78003B08BE003C08BF003D08C00003103F0D06
:100A8800400DC1004108C30044080319572D43080D
:100A9800440203185E2D4308BE004408BE02193004
:100AA8003E02031C5E2D3B08B8003C08B9003D0817
:100AB800BA00080043080319080044084302031851
:100AC8006D2D4408BE004308BE0219303E020318CB
:100AD80008000630BE003E08C200BA1BC217BD1B84
:100AE8004217B917FF30B805FF30B9050030BA050D
:100AF800BC17FF30BB05FF30BC050030BD054308FF
:100B080044020318AD2D01300310BB0DBC0DBD0D03
:100B1800FF3E031D882D0130C30243084406031914
:100B2800A82D0130C202420807390319A82D872DC4
:100B380001300310BA0CB90CB80CFF3E031D9D2DF3
:100B48000130BE003E08C407440843060319D62DE9
:100B58009C2D440843020318D62D01300310B80D0C
:100B6800B90DBA0DFF3E031DB22D0130C402430872
:100B780044060319D22D0130C2024208073903196D
:100B8800D22DB12D01300310BD0CBC0CBB0CFF3EA7
:100B9800031DC72D0130BE003E08C30744084306A5
:100BA800031DC62DC21FE82DFF30B806FF30B90659
:100BB800FF30BA060130B807003003180130B90712
:100BC800003003180130BA07421FFA2DFF30BB0668
:100BD800FF30BC06FF30BD060130BB0700300318EC
:100BE8000130BC07003003180130BD07C2013808C6
:100BF800BB07390803110318390A031DBC073A0853
:100C0800031103183A0A031DBD07BD1F1D2EFF302F
:100C1800BB06FF30BC06FF30BD060130BB07003005
:100C280003180130BC07003003180130BD07C201AA
:100C3800C20A3B08A0003C08A1003D08A2004408E5
:100C4800BE003E08A3004208BF003F08A4000A16E1
:100C58008A11CD222008B8002108B9002208BA005C
:100C6800080056088312A000831657088312A100B3
:100C7800831658088312A2000030A3000030A40095
:100C88000030A5000A168A15C7250A128A1103180A
:100C9800592E21308316A8000030A9000030D60054
:100CA8000030D7000030D8000800831658085704D1
:100CB8005604031D6A2E2230A8000030A900003017
:100CC800D6000030D7000030D8000800003083126A
:100CD800B8008030B900BF30BA000030A80000303A
:100CE800A9004030AA00DA308316D90059088312C7
:100CF800A300831656088312A00083165708831290
:100D0800A100831658088312A2000A168A15942691
:100D18000A128A112008AB002108AC002208AD0095
:100D28000A128A1118270A128A112808BB002908F2
:100D3800BC002A08BD000A128A1130250A128A113D
:100D480038088316D600831239088316D700831211
:100D58003A088316D800FF30DA070318DB0AFF3099
:100D6800DB0756088312C500831657088312C6008E
:100D7800831658088312C7005C30C8009030C90039
:100D88000830CA000030CB000A168A113E240A1225
:100D98008A1145088316D600831246088316D700A1
:100DA800831247088316D80056088312B8008316A2
:100DB80057088312B900831658088312BA00723094
:100DC800A8003130A9003F30AA0083165B08D30081
:100DD8005A08D2000A168A1543250A128A1152089F
:100DE8008312AB00831653088312AC008316540891
:100DF8008312AD000A128A1118270A128A112808CC
:100E0800BB002908BC002A08BD000A128A11302537
:100E180038088316D600831239088316D700831240
:100E28003A088316D80008002808AE002908AF0041
:100E38002A08B00003102F0D300DB1003108B200A0
:100E48003208031D2E2F0030A8000030A900003002
:100E5800AA0008002B08AE002C08AF002D08B0002F
:100E680003102F0D300DB1003108B7003708031DEE
:100E7800442F0030A8000030A9000030AA00080064
:100E880037087B3EAE002E08B2072A08AE002E08AF
:100E9800B7002D08AE002E08B7068030AE002E0829
:100EA800B705A917AC17FF30AB05FF30AC0500300C
:100EB800AD050030B3000030B4000030B500073095
:100EC800AE002E08B600281C772F2B08B3072C0875
:100ED800031103182C0A031DB4072D080311031866
:100EE8002D0A031DB50701300310AA0CA90CA80C84
:100EF800FF3E031D782F01300310AB0DAC0DAD0D77
:100F0800FF3E031D802F0130B602031D672F0930F5
:100F1800AE002E08B600281C9F2F2B08B3072C08FC
:100F2800031103182C0A031DB4072D080311031815
:100F38002D0A031DB50701300310AA0CA90CA80C33
:100F4800FF3E031DA02F01300310B50CB40CB30CE9
:100F5800FF3E031DA82F0130B602031D8F2F330853
:100F6800A0003408A1003508A2003208AE002E08FF
:100F7800A3003708AF002F08A4000A168A11CD2253
:100F88002008A8002108A9002208AA0008000A16BB
:100F98008A153C240A128A11013A0319CB2F8512AB
:100FA80006300A168A151C240A128A11831285161D
:100FB8008512013027020030031926020318E62F94
:100FC8000230E72F0A30A9000030AA0029080A16C3
:100FD8008A151C240A128A11831226080A168A15F1
:100FE8001C240A128A11831228080A168A151C243E
:060FF800831285160800BB
:1010000083120313A70000300A168A15D4260A1289
:101010008A150A2883120313271CA71813282708E8
:10102000033903191A280310A70D0310A70D031085
:10103000A70D1C280310A70C271527080A168A15C8
:10104000D4260A128A152428FB3083120313A60023
:101050002608A70527080A168A15D4260A128A1513
:10106000203083120313A600A60B342800000800CA
:10107000FF30FB070318FC0AFF3036297C08803A52
:10108000FF0080307F02031D472864307B02031C71
:10109000C2287C08803AFF0083307F02031D52285B
:1010A000E8307B020318C228D2307B067C04031D83
:1010B00066288316031334083504031966280130A3
:1010C000B4020030031CB503B502EC29E6307B0600
:1010D0007C04031D78288316031332083304031994
:1010E00078280130B2020030031CB303B302EC29AC
:1010F000F0307B067C04031D8A2883160313300816
:10110000310403198A280130B0020030031CB103F6
:10111000B102EC29831603132B08803A8312D00006
:101120007C08803A5002031D98287B0883162A0207
:10113000031C3828063083120313D0005008A9007E
:1011400083163D080A168A1575240A128A15903EE0
:1011500083163C078312D1005108840083170008CE
:1011600083162A078312D20083162B0803182B0A32
:101170008312D3005208FF3EFB0053080318013EC0
:10118000FF3E2F297C08803AFF0083307F02031D39
:10119000CB28E8307B020318EC29382804303E06BF
:1011A00003197A18BE297C08803A8312D000803057
:1011B0005002031DDF288316031728087B02031C37
:1011C000F0287C08803AFF0080307F02031DEA2867
:1011D0000A307B020318F0280130FB0000302F2971
:1011E0007C08803AFF0080307F02031DF9280A3016
:1011F0007B02031C38297C08803AFF0080307F0284
:10120000031D042964307B02031838298316031355
:101210003B08A83E84003A08831700078312D000D9
:10122000D101D10D5008FF3ED20051080318013EF4
:10123000FF3ED3007C08803AD4005308803A540221
:10124000031D242952087B02031C31298316031332
:101250003A088312D000D1015008FB005108FC006D
:10126000EC290130FB070318FC0A0030FC07EC29CD
:101270007C08803AFF0080307F02031D41296430E2
:101280007B02031CB2297C08803AFF0083307F0276
:10129000031D4C29E8307B020318B229D2307B06AB
:1012A0007C04031D5C29013083160313B407031863
:1012B000B50A0030B507EC29E6307B067C04031D37
:1012C0006A29013083160313B2070318B30A0030EA
:1012D000B307EC29F0307B067C04031D782901302C
:1012E00083160313B0070318B10A0030B107EC29C5
:1012F000063083120313D0005008A90083163D085E
:101300000A168A1575240A128A15903E83163C0720
:101310008312D100510884008317000883162A071E
:101320008312D20083162B0803182B0A8312D300D2
:101330005208FF3ED40053080318013EFF3ED5007B
:101340007C08803AD6005508803A5602031DAA2927
:1013500054087B02031C3129831603132B08FC005D
:101360002A08EB297C08803AFF0083307F02031DA6
:10137000BB29E8307B020318EC29312908303E06EE
:1013800003197A18EE297C08803AFF0080307F022A
:10139000031DCC2902307B02031CEC297C08803A17
:1013A000FF0083307F02031DD729E9307B02031839
:1013B000EC290A3083120313A0000030A1007C083E
:1013C000A3007B08A2000A168A1500250A128A15B6
:1013D0002108FC002008FB007A14FA107C08803AEF
:1013E000FF0080307F02031DF72964307B02031C5D
:1013F000692A643083120313A0000030A1007C0826
:10140000A3007B08A2000A168A111A220A128A1562
:101410002008FE3ED00050088316BD000A3083121B
:10142000A9000030AA000A30A0000030A1007C080A
:10143000A3007B08A2000A168A111A220A128A1532
:101440002108AC002008AB000A168A1517270A12DB
:101450008A152908D00050088316BC003D08831265
:10146000D000D1015008A0005108A1006430A200B2
:101470000030A3000A168A1500250A128A152008D2
:10148000D2002108D30083163C088312D400D50172
:101490005408A0005508A1000A30A2000030A300A3
:1014A0000A168A1500250A128A1520085207D60046
:1014B00021080318210A5307D7005608C83E83168F
:1014C000AA00831257080318013E003E8316AB00A2
:1014D000A52A7C08803AFF0080307F02031D722A13
:1014E0000A307B02031CA52A0A3083120313A000D2
:1014F0000030A1007C08A3007B08A2000A168A1114
:101500001A220A128A152008FF3ED00050088316BE
:10151000BB000A308312D0005008A9007C08A30049
:101520007B08A2000A30A0000030A1000A168A1130
:101530001A220A128A1520080A168A1575240A1218
:101540008A15D10051088316BA00FA18122F0A160C
:101550008A1587240A128A15122FDE30831203138C
:10156000AE009130AF007430B0009130B100C230A5
:101570000A128A1142200A128A15C82FDE308312FD
:101580000313AE009130AF002B30B0009130B100AA
:10159000C2300A128A1142200A128A15C82FF73067
:1015A00083120313AE009130AF00AD30B000913024
:1015B000B100B2300A128A1142200A128A1583162B
:1015C000C41CC82FFA308312A0009130A100B230A1
:1015D0000A168A156E250A128A15C82F0530831639
:1015E0000313B4000030B500C414C830602CF730C9
:1015F00083120313AE009130AF006930B000913018
:10160000B100B2300A128A1142200A128A158316DA
:10161000C418C82FFA308312A0009130A100B23054
:101620000A168A156E250A128A15C82FFD308312F4
:101630000313D00050088316C405C930602CDE3077
:1016400083120313AE009130AF001030B000913020
:10165000B100C2300A128A1142200A128A15C82F1C
:10166000923083120313AE009130AF008316350819
:101670008312B100831634088312B000B2300A120C
:101680008A1142200A128A15C82FD230602CDE300F
:1016900083120313AE009130AF00F230B0009030EF
:1016A000B100C2300A128A1142200A128A15C82FCC
:1016B000F73083120313AE009130AF00F430B00066
:1016C0009130B100B2300A128A1142200A128A15F2
:1016D0008316C41DC82FFA308312A0009130A100D8
:1016E000B2300A168A156E250A128A15C82F83167B
:1016F0000313320833040319812B30083104031D0E
:10170000892B0530B2000030B3000530B000003046
:10171000B100C415DC30602CF73083120313AE0027
:101720009130AF00E830B0009130B100B2300A1211
:101730008A1142200A128A158316C419C82FFA305A
:101740008312A0009130A100B2300A168A156E25CE
:101750000A128A15C82FF73083120313D0005008DD
:101760008316C405DD30602CDE3083120313AE0017
:101770009130AF00E330B0009030B100C2300A12B7
:101780008A1142200A128A15C82F9B308312031334
:10179000AE009130AF00831633088312B100831678
:1017A00032088312B000B2300A128A1142200A12A3
:1017B0008A15C82FE630602CDE3083120313AE008A
:1017C0009130AF00B330B0009030B100C2300A1297
:1017D0008A1142200A128A15C82F9B3083120313E4
:1017E000AE009130AF00831631088312B10083162A
:1017F00030088312B000B2300A128A1142200A1255
:101800008A15C82FF030602CDE3083120313AE002F
:101810009130AF00C330B0009030B100C2300A1236
:101820008A1142200A128A15C82FF7308312031337
:10183000AE009130AF00F430B0009130B100B23062
:101840000A128A1142200A128A158316441EC82FD2
:10185000FA308312A0009130A100B2300A168A1526
:101860006E250A128A15C82F831603134416FA3000
:10187000602CF73083120313AE009130AF00E830D4
:10188000B0009130B100B2300A128A1142200A121F
:101890008A158316441AC82FFA308312A00091309B
:1018A000A100B2300A168A156E250A128A15C82FB1
:1018B000EF3083120313D00050088316C405FB30A9
:1018C000FB000030C72EDE3083120313AE009130D0
:1018D000AF007E30B0009130B100C2300A128A11E0
:1018E00042200A128A15C82FDE3083120313AE007D
:1018F0009130AF001E30B0009130B100C2300A12FA
:101900008A1142200A128A15C82F0130831203134C
:10191000AE009130AF00D430B0009130B1008316EA
:1019200025088312D000D1015008B2005108B3003D
:10193000D930B4009130B500831626088312D20046
:10194000D3015208B6005308B700B2300A128A1108
:1019500042200A128A15C82F0A3083120313A000EE
:101960000030A1007C08A3007B08A2000A168A119F
:101970001A220A128A152108FC002008FB00C82F31
:10198000DE3083120313AE009130AF005E30B00042
:101990009130B100C2300A128A1142200A128A150F
:1019A000C82F383083120313AE009130AF00A4303B
:1019B000B0009130B10003108619031400300318F1
:1019C0000130D000D1015008B2005108B30003101B
:1019D000061A0314003003180130D200D301520854
:1019E000B4005308B5000310861A0314003003181E
:1019F0000130D400D5015408B6005508B7000310D3
:101A0000061B0314003003180130D600D701560816
:101A1000B8005708B900B2300A128A1142200A12DF
:101A20008A15C82FDE3083120313AE009130AF0049
:101A30005230B0009130B100C2300A128A114220F7
:101A40000A128A15C82F383083120313AE00913062
:101A5000AF008830B0009130B1008316C31D322D25
:101A60000130332D00308312D000D1015008B20074
:101A70005108B3008316431D3F2D0130402D003027
:101A80008312D200D3015208B4005308B500831664
:101A9000C31C4C2D01304D2D00308312D400D501D4
:101AA0005408B6005508B7008316431C592D013061
:101AB0005A2D00308312D600D7015608B8005708B7
:101AC000B900B2300A128A1142200A128A15C82FB0
:101AD000DE3083120313AE009130AF00BC30B00093
:101AE0009130B100C2300A128A1142200A128A15BE
:101AF000C82FDE3083120313AE009130AF00D33015
:101B0000B0009030B100C2300A128A1142200A128D
:101B10008A15C82FF73083120313AE009130AF003F
:101B2000F430B0009130B100B2300A128A11422074
:101B30000A128A157A1DC82FFA30A0009130A10030
:101B4000B2300A168A156E250A128A15C82F7A1520
:101B5000003083120313A600A700831644088312E3
:101B6000D0005008A8000A128A11CB270A128A1541
:101B70000130A6000030A700831635088312D0007C
:101B80005008A8000A128A11CB270A128A150230BF
:101B9000A6000030A700831634088312D000500836
:101BA000A8000A128A11CB270A128A150330A60050
:101BB0000030A700831633088312D0005008A80015
:101BC0000A128A11CB270A128A150430A6000030A7
:101BD000A700831632088312D0005008A8000A120A
:101BE0008A11CB270A128A150530A6000030A700FB
:101BF000831631088312D0005008A8000A128A11F7
:101C0000CB270A128A150630A6000030A7008316DB
:101C100030088312D0005008A8000A128A11CB277E
:101C20000A128A159030C52EDE3083120313AE00DF
:101C30009130AF009130B0009030B100C2300A1244
:101C40008A1142200A128A15C82FDE30831203132C
:101C5000AE009130AF00F430B0009130B100C2302E
:101C60000A128A1142200A128A157A1DC82FFA30E8
:101C7000A0009130A100B2300A168A156E250A1212
:101C80008A15C82F7A1583160313C401B401B50150
:101C9000B201B301B001B1019A30C52EDE3083121A
:101CA0000313AE009130AF00A230B0009030B1000D
:101CB000C2300A128A1142200A128A15C82FDE3059
:101CC00083120313AE009130AF00F430B0009130B6
:101CD000B100C2300A128A1142200A128A157A1DF6
:101CE000C82FFA30A0009130A100B2300A168A1530
:101CF0006E250A128A15C82F7A1500308312031335
:101D0000A600A700A8010A128A11CB270A128A1579
:101D10000130A6000030A700A8010A128A11CB27C3
:101D20000A128A150230A6000030A700A8010A1284
:101D30008A11CB270A128A150330A6000030A700AB
:101D4000A8010A128A11CB270A128A150430A600AC
:101D50000030A700A8010A128A11CB270A128A159F
:101D60000530A6000030A700A8010A128A11CB276F
:101D70000A128A150630A6000030A700A8010A1230
:101D80008A11CB270A128A15A430FB000130FC000F
:101D9000C82F773083120313AE009030AF00CF30DE
:101DA000B0009130B100831639088312B200B3013C
:101DB000B21BB303C930B4009130B50083163808A4
:101DC0008312B600B701B61BB703EC30B8009130F0
:101DD000B9000330D0005008A000831643080A164B
:101DE0008A15B2240A128A152008BA002108BB00FD
:101DF000C330BC009130BD000430D1005108A000B8
:101E0000831643080A168A15B2240A128A15200876
:101E1000BE002108BF00C2300A128A1142200A12F5
:101E20008A15C82F7C08003A03192F2F013A03198D
:101E3000792F063A03198D2F0F3A0319952F013A7E
:101E40000319A32F023A0319AE2F073A0319B32F30
:101E5000033A0319BB2F1F3A0319C02FC92E7B0861
:101E6000023A0319AD2A013A0319632C073A031900
:101E7000682D103A0319BE2A013A03191F2B033AA1
:101E80000319472B013A0319B42B0F3A0319DC2B22
:101E9000013A0319042C073A0319742C013A031967
:101EA000C02C3F3A0319122D083A0319792D013A33
:101EB0000319142E033A03194E2EE23A0319CF2ABE
:101EC000013A0319F72A1B3A0319302B0E3A03196A
:101ED000582B013A03198C2B3B3A0319C52B163AA0
:101EE0000319ED2B0A3A0319152C013A0319392C61
:101EF000C92E7B082C3A0319852C1A3A0319D12CC8
:101F0000763A0319232DD03A03198A2D0A3A031978
:101F1000252E3E3A03195F2EC92E7B08D03A0319AD
:101F2000EE2A0A3A0319162BC92E7B08343A0319F4
:101F3000452BAC3A0319772B3A3A0319AB2B5E3A8F
:101F40000319DA2BC92E7B08603A0319022CA43A34
:101F50000319342C0A3A0319582CC92E7B08B83AB5
:101F60000319AC2CC92E7B081C3A0319AC2C9C3AE3
:101F70000319AC2CC92E7B08A03A0319A72DC92E32
:101F80007B08043A0319422E6C3A03197C2EC92EA1
:101F90007C08803AFF0080307F02031DD12F64301F
:101FA0007B020318D92FB2300A168A1523240A128D
:101FB0008A1583120313AC0100300A168A15CB244C
:101FC0000A128A15C23083120313AE000130AF002B
:101FD0000A168A15B1270A128A15AC01AC0A00301C
:101FE0000A168A15CB240A128A15B23083120313FB
:101FF000AE000130AF000A168A15B127FA140800A6
:10200000FF1B0A2883137F1883170008840A03190B
:10201000FF0A08007F087F398A000408840A031930
:10202000FF0A82004134A0344234A134E034453404
:10203000A334A434A534A6344B34A7344D344834E7
:102040004F34A834503443345434A934AA34583467
:10205000E134AB34AC34E234AD34AE346234AF345A
:10206000B034B1346134B234B334B434E3346534AD
:10207000B634B734B834B934BA34BB34BC34BD34F4
:102080006F34BE3470346334BF347934E43478341C
:10209000E534C034C134E634C234C334C434C53446
:1020A000C634C734013400340A3400346434003494
:1020B000E83403341034273400340034003400345E
:1020C00080343F34F034FF34BE34E234A9343E343B
:1020D00083347634BE34AE342B343E343C34C33493
:1020E000BD34D23413343D347834D334BB34253446
:1020F0003434733425343334643420342534353463
:102100007334253433346434253433347334253410
:1021100034347334253435347334253434347334DF
:102120000034D134E134F034EE34F1342034ED3481
:10213000E034F134F234F0342E342034CE34C73469
:10214000D3340034D134E134F034EE34F13420347B
:10215000ED34E034F134F234F0342E342034CF3422
:10216000C734D3340034C434CE3432342D34D23472
:10217000E034E934EC34E534F0342034E234FB3438
:10218000EA34EB340034C434CE3432342D34C23427
:10219000EA34EB342034EF34EE342034F234E534D6
:1021A000EC34EF340034D134EE34F534F0342E34E2
:1021B000F234E534EA342E34ED34E034F134F234E0
:1021C000F0342E340034C434CE3432342D34D2348E
:1021D000E034E934EC34E534F0342034E234EA34E9
:1021E000EB340034C434CE3432342D34C234EA34C7
:1021F000EB342034F234E034E934EC34E534F034B8
:102200000034253433347334253433347534203476
:102210002034253433347334253433347534003466
:10222000C434CE3431342D34C234F034E534EC349B
:10223000FF342034E834EC34EF340034C034ED346F
:10224000E034EB34EE34E3342E342034E234E23440
:10225000EE34E4340034C434CE3431342D34C83454
:10226000EC34EF342F34EF34EE34F134F234003404
:1022700025343134323473342534643425346434B1
:1022800025346434253464340034C734E034E33412
:10229000F034F334E734EA34E0342E342E342E3480
:1022A0002E340034D634E834F434F0342E34203470
:1022B000E234FB34E234EE34E4340034D634E8342F
:1022C000F434F0342E342034E234E234EE34E434A6
:1022D0000034CF34EE34F134F234EE34FF34ED34E4
:1022E000ED34FB34E9340034CD34E034F134F234ED
:1022F000F034EE34E934EA34E8340034CF34EE34E8
:10230000EA34E034E734E034ED34E834FF340034C8
:10231000C4342E34E234FB34F534EE34E434FB348C
:102320003A3400342534343464342034F134E53420
:10233000EA342E3400342534343464342034EC341C
:10234000E834ED342E340034C4342E34E234F53421
:10235000EE34E434FB343A340034C834EC34EF3433
:10236000F334EB34FC34F134003428346E347534F7
:102370006C346C3429340034CF34E034EC34FF3422
:10238000F234FC340034CD34C034C334D0343A3465
:102390000034D234ED34E034F0343A340034D23402
:1023A000E234ED343A340034C034ED3431343A346C
:1023B00000344134ED3432343A340034253431348D
:1023C000363473340034C234FB34EA34EB34003432
:1023D000CD34E534F2340034C434D3343A340034E8
:1023E000C234EA34EB340034C434E03400342534ED
:1023F000733400342A340034AB002B08A9002908B8
:10240000AA00F030A9002908AA05AB0EF030AB05F0
:10241000280803190D2A2B152A152A080A128A15CD
:1024200000200A168A11831203132B080A128A1538
:1024300000200800A601A11F242AA009A109A00AC2
:102440000319A10AA601A60AA31F2F2AA209A309FC
:10245000A20A0319A30A0130A4002408A606A701B2
:10246000A801200821040319662AA501A50AA11BB9
:10247000452A01300310A00DA10DFF3E031D3A2A8D
:102480000130A4002408A507372A01300310A70D46
:10249000A80DFF3E031D462A21082302031D522AD0
:1024A00020082202031C5B2A2008A2022108031C28
:1024B000A303A302271401300310A10CA00CFF3EBC
:1024C000031D5C2A0130A502031D452A26080319B5
:1024D0006E2AA709A809A70A0319A80A2808A100B3
:1024E0002708A0000800D10000308312B800803017
:1024F000B900BF30BA00831651080A168A15E524C0
:102500000A168A112808D4002908D5002A08D600FE
:102510000030D7007F30D8004330D9000A168A1126
:102520005B250A168A115408BB005508BC005608E2
:10253000BD000A128A1130250A168A11380883163E
:10254000CE00831239088316CF0083123A0883160F
:10255000D0004E088312AB0083164F088312AC00E4
:10256000831650088312AD004030A8001C30A9002B
:102570004630AA000A128A1118270A168A1128085A
:10258000E4002908E5002A08E6000A168A11C92491
:102590006508ED006408EC00080023080319D52A3B
:1025A000220821042004031DE82A0030A000003086
:1025B000A1000030A20008000130A5002508A307F3
:1025C00001300310A20CA10CA00CFF3E031DE12A58
:1025D000FE3022050319032BDC2A0130A500250853
:1025E000A3070130A007003003180130A107003015
:1025F00003180130A20701300310A20CA10CA00C9B
:10260000FF3E031DFC2AFF3022050319162BED2A7D
:1026100002302302031C182B0130A30201300310E7
:10262000A00DA10DA20DFF3E031D0F2BA11F082B16
:102630002318202BFF30A0057F30A105FF30A20515
:102640000310A30C2308A500A601A7011030031056
:10265000A50DA60DA70DFF3E031D272B2508A004E1
:102660002608A1042708A204240803190800A217B9
:102670000800823083120313AF00DD30AE00AE0BD2
:102680003F2BAF0B3F2B03300A128A1500200A168E
:102690008A110C3083120313AF00AE30AE00AE0BC4
:1026A0004F2BAF0B4F2B000003300A128A1500206E
:1026B0000A168A11843083120313AE00AE0B5E2B10
:1026C000000003300A128A1500200A168A1103300E
:1026D00083120313AF009730AE00AE0B6D2BAF0B20
:1026E0006D2B02300A128A1500200A168A11033057
:1026F00083120313AF009730AE00AE0B7D2BAF0BF0
:102700007D2B83120313A80128300A168A11FC219D
:102710000A168A11033083120313AF009730AE00FC
:10272000AE0B902BAF0B902B83120313A8010C3030
:102730000A168A11FC210A168A110A168A1587249C
:102740000A168A1183120313A80106300A168A1189
:10275000FC210A168A11033083120313AF0097304D
:10276000AE00AE0BB12BAF0BB12B080083160514D6
:10277000851405118515051285120610861006119F
:102780008615061686160617861707108710071176
:102790008711071287120717871783128501860191
:1027A000870183168117011381120112811101150E
:1027B000811401148B170B178B120B128B150C172E
:1027C0008C160C128C118C140C140D108312901298
:1027D0001016901110119010101012179216121658
:1027E0009215121592141210C3309100831694138F
:1027F00014139412141294111411941014108312BF
:10280000941314139412141294111411941014109C
:102810008316981318139816181218159810181074
:102820008312981718139812181618119810181068
:102830008316181D1D2C0C301E2C0230990083129B
:102840009F131F179F121F169F151F111F1083160E
:102850001F159F101F107F308312A00020088316C1
:10286000C200C1011A3083120313A100F730A00087
:10287000A00B382CA10B382C3D2C08000330CC00C9
:102880004C08A9004A080A168A1575240A168A11E6
:10289000CD004D084807CF004908CE000318CE0AE6
:1028A000CD1BCE034E08D0005008FF004F08840017
:1028B0000A168A1100200A168A11D1000A168A11F6
:1028C00000200A168A11D2000A168A1100200A1660
:1028D0008A11D3004A084B040319C22C0330CC00E0
:1028E0004C08A900FF30CA070318CB0AFF30CB07FA
:1028F0004A080A168A1575240A168A11CD004D0851
:102900004807CF004908CE000318CE0ACD1BCE03DE
:102910004E08D0005008FF004F0884000A168A11A4
:1029200000200A168A11B8000A168A1100200A1619
:102930008A11B9000A168A1100200A168A11BA00F3
:102940005108A8005208A9005308AA004508AB0086
:102950004608AC004708AD000A128A1118270A166B
:102960008A112808BB002908BC002A08BD000A12E9
:102970008A1130250A168A113808D1003908D20088
:102980003A08692C5108C5005208C6005308C70010
:1029900008006408E8006508E9006608EA0003101A
:1029A000690D6A0DEB006B088316CD004D08031D01
:1029B000E32C00308312E7000030E6000030E50031
:1029C0000030E400080083126408E8006508E900AC
:1029D0006608EA0017300310EA0CE90CE80CFF3E29
:1029E000031DEB2C6808EB006B088316C8008312EC
:1029F000E517FF30E405FF30E5050030E605640823
:102A00008316C900831265088316CA0083126608FC
:102A10008316CB00CC018E30CD02CD1F262D4D0864
:102A2000803A8F3E031CD92C01300310CC0CCB0C08
:102A3000CA0CC90CFF3E031D152D01308312E8009E
:102A400068088316CD0703193D2D142D18304D024B
:102A50000318D92C4D0803193D2D01308312E800CD
:102A600003108316C90DCA0DCB0DCC0D8312E80BD4
:102A7000302D01308316CD022A2D480803194B2D25
:102A8000C909CA09CB09CC09C90A0319CA0A031919
:102A9000CB0A0319CC0A4C088312E70083164B08B3
:102AA0008312E60083164A088312E500831649085C
:102AB0008312E40008005708DA005808DB005908C0
:102AC000DC0003105B0D5C0DDD005D08E2006208B8
:102AD000031D712D0030D4000030D5000030D60029
:102AE00008005408DA005508DB005608DC00031023
:102AF0005B0D5C0DDD005D08E3006308031D872DA1
:102B00000030D4000030D5000030D600080000307E
:102B1000DF000030E0000030E10089306307DA00B8
:102B20005A08E2025908DA005A08E3005608DA00A7
:102B30005A08E3068030DA005A08E305D817FF3058
:102B4000D705FF30D8050030D905D517FF30D4059B
:102B5000FF30D5050030D6051830DA005A08DE00FF
:102B600001300310DF0DE00DE10DFF3E031DB12D1F
:102B700056085902031DC22D55085802031DC22DC7
:102B800054085702031CCF2D5408D7025508031CC4
:102B9000550FD8025608031C560AD9025F1401309B
:102BA0000310D70DD80DD90DFF3E031DD02D0130D8
:102BB000DE02031DB02D5F08A0006008A1006108BF
:102BC000A2006208DA005A08A3006308DB005B0871
:102BD000A4000A168A11CD222008D4002108D500AD
:102BE0002208D600080083120313861F082E7D08D2
:102BF00003197A1A082E83164208831281000B11DA
:102C00008B168F018E017A16FD01FD0A1014080043
:102C1000861B222E7D0303197A1E222E10100A30E5
:102C20000F02031C1F2E0D300F0203181F2E02303F
:102C3000F0007008FD0083128F018E0108007A12E7
:102C4000FD010800861F2F2E02307D0603197A1E13
:102C50002F2E10140330F0007008FD000800861BB2
:102C6000702E03307D0603197A1E702E101002306C
:102C7000F0007008FD002030831640020318612E1A
:102C80003F08A03E840003108313800D023083129E
:102C90000F02031C502E83163F08A03E8400001430
:102CA00007308316400603195D2E0F3040060319C6
:102CB0005D2E17304006031D612E0130F0007008B4
:102CC000BF070130F0007008C00720304006031D28
:102CD0001B2E0430F0007008FD00C001BF011B2E48
:102CE000861F7D2E04307D0603197A1E7D2E10145A
:102CF0000530F0007008FD000800861B0800053054
:102D00007D06031D08007A1E0800101002300F0215
:102D1000031C952E05300F020318952EFD017A1223
:102D2000FA158316C1010B118B120330F100973095
:102D3000F000F00B992EF10B992E9E2E08008B19A6
:102D40000B1CA82E0A168A11F3250A168A110B10DD
:102D50008B1A0B1DC32E83160313420883128100A6
:102D6000033083164106031DBD2EC101FD017A12F9
:102D7000FA11FA12831210108B120B110130F600A7
:102D800076088316C107831603130C1CCC2E8312FE
:102D90000C1CCC2E10100C1083168C1C0A2F8312C6
:102DA0008C1C0A2F0130F60076088316C5071C30EC
:102DB0004502031C082F0130B6070318B70A00307C
:102DC000B707C501FA173C30F0000030F1003708B2
:102DD000F3003608F2000A168A15F4250A168A113D
:102DE0007008710403197A171030F0000E30F100EA
:102DF0003708F3003608F2000A168A15F4250A1679
:102E00008A1170087104031D082F6A14B601B701F6
:102E100083128C1083160C1F452F83120C1F452F15
:102E2000233083162402031C1C2F2E302402031887
:102E30001C2FBE01BE0A432F55302402031C262F2F
:102E40006A3024020318262F0230392F82302402E0
:102E5000031C302F9C3024020318302F0430392FEC
:102E6000BE302402031C3D2FD330240203183D2F13
:102E70000830F6007608BE00432FE6302402031C1B
:102E8000432FBE017A1083120C1379088A00780848
:102E90008400770E8300FE0E7E0E0900E500650AB1
:102EA000031D542F0030080065080A168A1173228A
:102EB0000A168A116D088316D30083126C088316D4
:102EC000D2000A168A1543250A168A115208DC0018
:102ED0005308DD005408DE0040308312D7001C3058
:102EE000D8004630D90083165C088312D4008316BC
:102EF0005D088312D50083165E088312D6000A1679
:102F00008A115B250A168A1154088316D60083128B
:102F100055088316D700831256088316D8000A1264
:102F20008A1135260A168A115608DF005708E00074
:102F30005808E1005F088312D700831660088312E7
:102F4000D800831661088312D9004830D40073304A
:102F5000D5004530D6000A168A115B250A168A115B
:102F60005408BB005508BC005608BD00CF30B8005F
:102F70005B30B9003B30BA000A128A1130250A16BC
:102F80008A1138088316E200831239088316E30099
:102F900083123A088316E40000308312D700803091
:102FA000D8003F30D900831662088312D4008316FC
:102FB00063088312D500831664088312D6000A16AC
:102FC0008A115B250A168A115408BB005508BC00FB
:102FD0005608BD009330B8008830B900C330BA003D
:102FE0000A128A1130250A168A113808E4003908B5
:102FF000E5003A08E6000A168A11C92464080800A8
:1038340001340034A00020089300831614180800F3
:103844001F2C83120313A000200884008317800117
:10385400080064008001840A040603190034040685
:103864002C2C8312A10021080A168A151C24831209
:10387400130808000A168A155324A4002408A50076
:10388400250801390800A100A0013A3021020318DB
:10389400512C30302102031C512CA001A00A200C11
:1038A4000800851205300A168A151C240A168A1582
:1038B40000300A168A153324A2002208A3008516B4
:1038C400230808007E088A007F08820064240A1600
:1038D4008A158000840A04087D0603190034FF0A4F
:1038E4000319FE0A682C8312AC00AB012C1C7E2C3D
:1038F4002908AA002A08AB070310A90D0310AC0C71
:103904002C08031D782C2B08080083120313A8012C
:1039140001300A168A11FC210A168A150530831211
:103924000313AD002530AC00AC0B962CAD0B962CDC
:103934009B2C080083160313071687128711851220
:103944008312851683169413141714108312941378
:1039540014139416141294111411941014140800CE
:103964008312A2000130A100200ABA2C0310A10D79
:10397400FF3E031DB82C210822050319C62CF03084
:10398400A0009130A1000800E330A0009130A10014
:103994000800AD00DC2CA8012D0880380A168A1115
:1039A400FC210800A8012D08403E80380A168A111F
:1039B400FC2108002C08003A0319CD2C013A031904
:1039C400D42CE42C08008312AF002F08AB00AC0108
:1039D400AD012B08A0002C08A1002D08A2008E30F8
:1039E400AE002E08A300A4010A168A11CD222008D5
:1039F400A8002108A9002208AA000800A401A50122
:103A0400201C0A2D2208A4070318A50A2308A507C9
:103A140001300310A20DA30DFF3E031D0B2D013039
:103A24000310A10CA00CFF3E031D122D200821043D
:103A3400031D022D2508A1002408A000080002345B
:103A440001340234013401340234013401340134C8
:103A540000340034003401340134013400340034BF
:103A640000340034003400340034003400340434AE
:103A74000634033403340034003400340034003496
:103A84000034D501D31F4D2DD209D309D20A03190D
:103A9400D30AD501D50A52088312A000831653080D
:103AA4008312A100A2018E30EE006E08A3008316DB
:103AB40055088312EF006F08A4000A168A11CD225C
:103AC40020088316D200831221088316D3008312A0
:103AD40022088316D4000800A4002408A2002208A7
:103AE400A3002308840000080319872D0130A200D5
:103AF4002208A307732D0130A2002208A307013076
:103B0400A0070318A10A0030A1072108FF0020081C
:103B140084000A168A1100200A168A15A2002308B6
:103B240084002208831780000008031908007D2DF3
:103B34000A168A153C240A168A15013A03199A2D85
:103B44008512013027020030031926020318AC2D18
:103B54000330AD2D0B30A9000030AA0029080A1645
:103B64008A151C240A168A15831226080A168A1531
:103B74001C240A168A1500300A168A153324A80054
:103B84002808AB0085162B080800A21FD62D200894
:103B9400003CA0002108031C210F003CA1002208C6
:103BA400031C220F803CA200A51FE52D2308003C26
:103BB400A3002408031C240F003CA4002508031CB4
:103BC400250F803CA5008030A2068030A50625087C
:103BD4002202031D080024082102031D08002308F3
:103BE40020020800700871040319212EF501F50A5A
:103BF400F11B082E01300310F00DF10DFF3E031DE3
:103C0400FD2D0130F4007408F507FA2D71087302D4
:103C1400031D0E2E70087202031C162E7008F20289
:103C24007108031CF303F30201300310F10CF00CD0
:103C3400FF3E031D172E0130F502031D082E7308E5
:103C4400F1007208F0000800280829040319532E13
:103C5400AD01AD0AA91B3A2E01300310A80DA90D20
:103C6400FF3E031D2F2E0130AC002C08AD072C2E77
:103C740029082B02031D402E28082A02031C482E63
:103C84002808AA022908031CAB03AB020130031065
:103C9400A90CA80CFF3E031D492E0130AD02031DE3
:103CA4003A2E2B08A9002A08A8000800A501A6019D
:103CB4002008210403198F2EA701A70AA11B6E2E29
:103CC40001300310A00DA10DFF3E031D632E013032
:103CD400A4002408A707602E01300310A50DA60D2B
:103CE400FF3E031D6F2E21082302031D7B2E200897
:103CF4002202031C842E2008A2022108031CA30311
:103D0400A302251401300310A10CA00CFF3E031DD7
:103D1400852E0130A702031D6E2E2608A10025085A
:103D2400A0000800220821042004031DA62E230855
:103D3400840083138001840A80010030A0000030D5
:103D4400A1000030A200080022087F39A400A501C8
:103D54000310A40DA50D23088400240883138000F8
:103D6400840A25088000210D210D0139A400A50134
:103D74002308840024088004840A25088004230876
:103D8400840082308007840F00080318000AFF00B3
:103D9400FF307F0780008403220880393F38A20067
:103DA400A113080083120313A2008316430883128D
:103DB400A000A1012008A3002108A40008300310DA
:103DC400A30DA40DFF3E031DE12E2208A000A101B6
:103DD4002008A3042108A404A501231CF32E86149F
:103DE400F42E8610F52EF62EF72E0130FF008312E6
:103DF4000313240DA40CA30CFF0BF92E0615022F9C
:103E0400032F042F8312031306110130A00020088E
:103E1400A50710302502031CEF2E0614112F122FB4
:103E2400132F8312031306100800AF01AC1F212FB8
:103E3400AB09AC09AB0A0319AC0AAF01AF0AAA1F5C
:103E4400282FA909AA09A90A0319AA0A29082A04D0
:103E54000319552FAE01AE0AAA1B3C2F01300310E3
:103E6400A90DAA0DFF3E031D312F0130AD002D0811
:103E7400AE072E2F2A082C02031D422F29082B02DD
:103E8400031C4A2F2908AB022A08031CAC03AC020A
:103E940001300310AA0CA90CFF3E031D4B2F013067
:103EA400AE02031D3C2F2F0803195D2FAB09AC098B
:103EB400AB0A0319AC0A2C08AA002B08A9000800B5
:103EC40083129F121F129F111F14033083120313B6
:103ED400A1009730A000A00B6D2FA10B6D2F8312B2
:103EE40003131F151F19742F1F101E08A00020088C
:103EF4008316A40083129F121F129F151F140330F0
:103F040083120313A1009730A000A00B872FA10BED
:103F1400872F831203131F151F198E2F1F101E08BE
:103F2400A00020088316A50083129F121F169F1558
:103F34001F14033083120313A1009730A000A00BB9
:103F4400A12FA10BA12F831203131F151F19A82F33
:103F54001F101E08A00020088316A6000800B20146
:103F64008312031332082E0784002F0803182F0A24
:103F7400FF000A168A1100200A168A15003A03194E
:103F8400080010303206031DCF2FAC01AC0A0030FC
:103F94000A168A15CB240A168A15831203133208CB
:103FA4002E0784002F0803182F0AFF000A168A110F
:103FB40000200A168A15B0003008B1000130B000A4
:103FC4003008B207C0303102031CF72F3108523ECB
:103FD40084008F300318013EFF000A168A11002066
:103FE4000A168A15B0003008B100A801A80A3108E1
:0C3FF4000A168A11FC210A168A15B22F49
:02400E00BA3FB7
:00000001FF
