:060000000A128A110E280D
:10000800FE00030EF7000408F8000A08F9000A16B3
:100018008A119F2E0A128A1111288317B230FD0007
:100028001130FE00F830FF00903084000A168A155F
:10003800E6230A128A110A128A11FE270A128A1165
:10004800FB000A128A11FF270A128A11FC00B2303B
:100058008400D2300A168A15B7230A128A1183132C
:10006800A0308400C8300A168A15B7238316EB011E
:10007800FD01FA0183010A128A1142280A168A111F
:10008800B6230A128A110A168A151A240A128A1124
:100098000A168A1139230A128A1100300A168A159B
:1000A800D4260A128A11AC0100300A168A1549248E
:1000B8000A128A11493083120313AE009130AF003F
:1000C8000A168A15B1270A128A110030A9000030D1
:1000D800A8000030A7006430A6000A168A15DD259E
:1000E8000A128A11FF3A031DAF288316EA016A082B
:1000F800E600E701E801E90169088312A90083160F
:1001080068088312A800831667088312A70083165D
:1001180066088312A600AA010A168A1593260A12EF
:100128008A1101308316E6006608EA0764306A021D
:10013800031C7B2800308312A9000030A80000307F
:10014800A7006430A600AA01AA0A0A168A159326EF
:100158000A128A1163290030A9000030A800003073
:10016800A7006430A6000A168A15DD250A128A112E
:10017800013A031D63290030A9000030A8000030AF
:10018800A7000030A6000A168A15DD250A128A1172
:100198008316E6006608C40000308312A900003008
:1001A800A8000030A7000130A6000A168A15DD2530
:1001B8000A128A118316E600E7016608B400670888
:1001C800B50008300310B40DB50DFF3E031DE62839
:1001D80000308312A9000030A8000030A7000230C8
:1001E800A6000A168A15DD250A128A118316E6006A
:1001F800E7016608B4046708B50400308312A90053
:100208000030A8000030A7000330A6000A168A159F
:10021800DD250A128A118316E600E7016608B20096
:100228006708B30008300310B20DB30DFF3E031D7D
:10023800172900308312A9000030A8000030A70059
:100248000430A6000A168A15DD250A128A118316BB
:10025800E600E7016608B2046708B30400308312B9
:10026800A9000030A8000030A7000530A6000A1633
:100278008A15DD250A128A118316E600E701660849
:10028800B0006708B10008300310B00DB10DFF3E93
:10029800031D482900308312A9000030A80000304F
:1002A800A7000630A6000A168A15DD250A128A114B
:1002B8008316E600E7016608B0046708B104063053
:1002C80083160313E8001330E700AD30E600E60BB1
:1002D8006B29E70B6B29E80B6B29FA1383160313B9
:1002E8006B127A136B100A168A1562270A128A1182
:1002F80025080A168A114E270A128A118316E60063
:100308006608B90026080A168A114E270A128A11A9
:100318008316E6006608B8000A128A114E240A12EB
:100328008A11FA1DB329F03083162006031DB3295C
:100338002108031DB3290F302306031DB3291130EB
:1003480022060319FA1AAB29C315FA16B329223063
:100358002206031DB329F730E6006608C305831695
:10036800C418C31DD429FA1FBF290130AE070318CA
:10037800AF0A0030AF073508803AE6002F08803A08
:100388006602031DC9292E0834020318E029F73034
:1003980083160313E6006608C305AE01AF01E02922
:1003A800C418E029C31DDA29C315E029C319E029B7
:1003B800F730E6006608C30583160313C41D1F2A19
:1003C8007A1FEC290130AC070318AD0A0030AD07DD
:1003D800441EF7293808803A6B3E031C431AF72954
:1003E8004316AC01AD01431A092A2D08803AE600EC
:1003F8003308803A6602031D032A32082C02031CC4
:100408001F2A8316031343161D2A431E1F2A2D086D
:10041800803AE6003108803A6602031D152A300842
:100428002C02031C1F2AEF3083160313E60066080C
:10043800C305AC01AD01831203138619061E292AD0
:100448008316C31A292AC316352A8312861D2E2A13
:10045800061A352A8316C31E352ADF30E6006608D9
:10046800C3058312861A3A2A061F3F2A8316431B9E
:100478003F2A431771298312861E061B712983168A
:10048800431F7129BF30E6006608C3057129C900FA
:100498003030BA003A08C1002F08BB002E08BA0055
:1004A800AE0A0319AF0A3B08FF003A0884000A168F
:1004B8008A1100200A128A11BC003C08C8004808AA
:1004C8000319492C253048060319762A4808BA002A
:1004D800490884003A08831780000130BA003A08B6
:1004E800C907502AC601C701C0012F08FF002E08FE
:1004F80084000A168A1100200A128A110A128A1523
:1005080001200A128A11031C452BC601C7010A30B3
:10051800A0000030A1004708A3004608A2000A1660
:100528008A159C240A128A112108C7002008C600CF
:100538002F08FF002E0884000A168A1100200A12CC
:100548008A11D03EBA00FF3003180030BB003A08C9
:10055800C6070318C70A3B08C7070130AE070318C8
:10056800AF0A0030AF072F08FF002E0884000A16D4
:100578008A1100200A128A110A128A1501200A1209
:100588008A11031C452B8B2A410884008313000819
:10059800BE00840A00088403BF000230BA003A088B
:1005A800C1073E083F04031DDD2AB930BE00913063
:1005B800BF00C201C30142083E0784003F08031878
:1005C8003F0AFF000A168A1100200A128A11003A0F
:1005D8000319F52A0130C2070318C30A0030C307FC
:1005E800DF2A47084302031DFB2A46084202031874
:1005F800042B4208C6024308031CC703C702062B84
:10060800C601C701FF30C6070318C70AFF30C7076E
:10061800460A0319470A0319362B2030BA0049083D
:1006280084003A08831780000130BA003A08C907E5
:10063800062B3F08FF003E0884000A168A11002096
:100648000A128A11BA00490884003A088317800000
:100658000130BE070318BF0A0030BF070130BA00D7
:100668003A08C9070130C2020030031CC303C302A1
:10067800420A031D1D2B430A0319502A1D2B40173C
:10068800662B2F08BB002E08BA00AE0A0319AF0A62
:100698003B08FF003A0884000A168A1100200A1253
:1006A8008A11C800003A0319492C643A0319662BC9
:1006B8000D3A0319662B1A3A0319C82A063A031980
:1006C800432B502A401B802B4108840083130008C9
:1006D800C400840A0008C5000230BA003A08C107FD
:1006E800C51F8C2B0330BA003A08C004C409C509D9
:1006F800C40A0319C50A8C2B410884008313000817
:10070800C400840A0008C5000230BA003A08C107CC
:10071800C801C80A4808BA003A07523E8400903017
:100728000318013EFF000A168A1100200A128A11D6
:10073800BB000A168A1100200A128A11BC003C0864
:100748004502031DA92B3B084402031CB32B0130AF
:10075800BA003A08C80705304806031D8E2B46081C
:1007680047040319C12B400803390319C12BFF3073
:10077800C6070318C70AFF30C7074708803A803CF6
:10078800031DC82B460848020318D62B83120313EF
:100798004808BA00BB013A08C6023B08031CC70355
:1007A800C702DA2B83120313C601C70146084704A0
:1007B8000319F32B2030BA00490884003A0883173C
:1007C80080000130BA003A08C907FF30C60703188D
:1007D800C70AFF30C70746084704031DDE2B400839
:1007E80003390319022C2D30BA00490884003A084D
:1007F800831780000130BA003A08C9074808BA00D0
:100808003A08BD00FF30BA003A08BD073D0A03198F
:10081800502A0A30A8000030A9003D08BA003A075B
:10082800523E840090300318013EFF000A168A11D8
:1008380000200A128A11A0000A168A1100200A1242
:100848008A11A1004508A3004408A2000A168A15C7
:1008580017260A128A112108AB002008AA000A16D6
:100868008A1573250A128A112808303EBB003B08F6
:10087800C8004808BA00490884003A08831780006D
:100888000130BA003A08C907062C490884008317C2
:10089800800108003E0303197A180F2D7B037C049E
:1008A800031D582C0230062D7C08803AFF0080304A
:1008B8007F02031D612C14307B02031C9F2C8316BE
:1008C8000317280883120313CA00CB014A08A000A3
:1008D8004B08A1000A30A2000030A3000A168A15AE
:1008E8009C240A128A112008093ECC00210803180A
:1008F800013E003ECD007C08803ACE004D08803A8B
:100908004E02031D892C4C087B0203189F2C0A30C9
:1009180083120313A0000030A1007C08A3007B0809
:10092800A2000A168A111A220A128A112108FC004A
:100938002008FB00092D7C08803AFF0080307F02E8
:10094800031DA82C64307B02031CD22C83160317CA
:10095800280883120313CA00CB014A08A0004B08D9
:10096800A1006430A2000030A3000A168A159C2456
:100978000A128A112008633ECC0021080318013EA0
:10098800003ECD007C08803ACE004D08803A4E02E9
:10099800031DD02C4C087B02031C8B2C7C08803A4E
:1009A800FF0083307F02031DDB2CE8307B02031C31
:1009B800052D83160317280883120313CA00CB01D9
:1009C8004A08A0004B08A100E830A2000330A300A9
:1009D8000A168A159C240A128A112008E73ECC00C0
:1009E80021080318013E033ECD007C08803ACE0062
:1009F8004D08803A4E02031D032D4C087B02031C50
:100A08008B2C0130FB000030FC007A14FA107A11AC
:100A18000A128A15C22902303E0603197A185D2D7A
:100A28007C08803AFF0080307F02031D1D2D0230B4
:100A38007B020318272D8316031728088312031334
:100A48000A128A15FE287C08803AFF0080307F024F
:100A5800031D302D0A307B02031C602D7C08803A70
:100A6800FF0080307F02031D3B2D64307B0203189A
:100A7800602D7C08803A803C031D462D7B08831638
:100A880003133A020A128A15031C0F28831603134C
:100A98003B08A83E84003A08831700078312CA005F
:100AA800CB01CB0D4A08FF3EFB004B080A128A1502
:100AB80092280A128A15A2280A128A1515283808B7
:100AC800BE003908BF003A08C00003103F0D400DB2
:100AD800C1004108C4003B08BE003C08BF003D08F7
:100AE800C00003103F0D400DC1004108C300440879
:100AF80003198A2D430844020318912D4308BE00A8
:100B08004408BE0219303E02031C912D3B08B80070
:100B18003C08B9003D08BA0008004308031908005A
:100B2800440843020318A02D4408BE004308BE022F
:100B380019303E02031808000630BE003E08C20005
:100B4800BA1BC217BD1B4217B917FF30B805FF30D3
:100B5800B9050030BA05BC17FF30BB05FF30BC052E
:100B68000030BD05430844020318E02D013003108E
:100B7800BB0DBC0DBD0DFF3E031DBB2D0130C302D7
:100B8800430844060319DB2D0130C2024208073925
:100B98000319DB2DBA2D01300310BA0CB90CB80CAF
:100BA800FF3E031DD02D0130BE003E08C407440897
:100BB80043060319092ECF2D440843020318092EB2
:100BC80001300310B80DB90DBA0DFF3E031DE52D18
:100BD8000130C402430844060319052E0130C2023D
:100BE800420807390319052EE42D01300310BD0C06
:100BF800BC0CBB0CFF3E031DFA2D0130BE003E08A5
:100C0800C30744084306031DF92DC21F1B2EFF30DE
:100C1800B806FF30B906FF30BA060130B807003011
:100C280003180130B907003003180130BA07421F12
:100C38002D2EFF30BB06FF30BC06FF30BD0601304D
:100C4800BB07003003180130BC070030031801301F
:100C5800BD07C2013808BB07390803110318390A50
:100C6800031DBC073A08031103183A0A031DBD0700
:100C7800BD1F502EFF30BB06FF30BC06FF30BD063F
:100C88000130BB07003003180130BC0700300318DF
:100C98000130BD07C201C20A3B08A0003C08A10000
:100CA8003D08A2004408BE003E08A3004208BF0059
:100CB8003F08A4000A168A11CD222008B80021088E
:100CC800B9002208BA00080056088312A00083164B
:100CD80057088312A100831658088312A200003017
:100CE800A3000030A4000030A5000A168A151425B8
:100CF8000A128A1103188C2E21308316A80000309E
:100D0800A9000030D6000030D7000030D800080015
:100D18008316580857045604031D9D2E2230A80038
:100D28000030A9000030D6000030D7000030D800CD
:100D3800080000308312B8008030B900BF30BA0014
:100D48000030A8000030A9004030AA00DA3083162D
:100D5800D90059088312A300831656088312A000ED
:100D6800831657088312A100831658088312A2001D
:100D78000A168A1553260A128A112008AB00210880
:100D8800AC002208AD000A128A114B270A128A11F8
:100D98002808BB002908BC002A08BD000A128A11CD
:100DA80063250A128A1138088316D6008312390877
:100DB8008316D70083123A088316D800FF30DA0763
:100DC8000318DB0AFF30DB0756088312C5008316B9
:100DD80057088312C600831658088312C7005C3070
:100DE800C8009030C9000830CA000030CB000A168D
:100DF8008A113E240A128A1145088316D6008312E6
:100E080046088316D700831247088316D800560869
:100E18008312B800831657088312B900831658083E
:100E28008312BA007230A8003130A9003F30AA00FE
:100E380083165B08D3005A08D2000A168A15BD2407
:100E48000A128A1152088312AB00831653088312C0
:100E5800AC00831654088312AD000A128A114B277E
:100E68000A128A112808BB002908BC002A08BD00FC
:100E78000A128A11632538088316D60083123908A6
:100E88008316D70083123A088316D800080028086A
:100E9800AE002908AF002A08B00003102F0D300D4E
:100EA800B1003108B2003208031D612F0030A800DC
:100EB8000030A9000030AA0008002B08AE002C085A
:100EC800AF002D08B00003102F0D300DB100310810
:100ED800B7003708031D772F0030A8000030A9009D
:100EE8000030AA00080037087B3EAE002E08B20783
:100EF8002A08AE002E08B7002D08AE002E08B70647
:100F08008030AE002E08B705A917AC17FF30AB0527
:100F1800FF30AC050030AD050030B3000030B40040
:100F28000030B5000730AE002E08B600281CAA2FE6
:100F38002B08B3072C08031103182C0A031DB40748
:100F48002D08031103182D0A031DB50701300310DE
:100F5800AA0CA90CA80CFF3E031DAB2F01300310EF
:100F6800AB0DAC0DAD0DFF3E031DB32F0130B60226
:100F7800031D9A2F0930AE002E08B600281CD22F68
:100F88002B08B3072C08031103182C0A031DB407F8
:100F98002D08031103182D0A031DB507013003108E
:100FA800AA0CA90CA80CFF3E031DD32F0130031077
:100FB800B50CB40CB30CFF3E031DDB2F0130B60299
:100FC800031DC22F3308A0003408A1003508A20071
:100FD8003208AE002E08A3003708AF002F08A4007F
:100FE8000A168A11CD222008A8002108A900220883
:080FF800AA00080001340034D6
:10100200A100A0013A30210203180D28303021023C
:10101200031C0D28A001A00A200C0800FF30FB07CA
:101022000318FC0AFF300A297C08803AFF0080304E
:101032007F02031D1E2864307B02031C96287C0855
:10104200803AFF0083307F02031D2928E8307B02AB
:1010520003189628D2307B067C04031D3C28831695
:1010620003133408350403193C28FF30B40703186E
:10107200B50AFF302E29E6307B067C04031D4D287D
:10108200831603133208330403194D28FF30B207C5
:101092000318B30AFF303C29F0307B067C04031DA1
:1010A2005E28831603133008310403195E28FF30CB
:1010B200B0070318B10AFF304A29831603132B081D
:1010C200803A8312CA007C08803A4A02031D6C28C7
:1010D2007B0883162A02031C0F280630831203138F
:1010E200CA004A08A90083163D080A168A15F32386
:1010F2000A128A15903E83163C078312CB004B08D6
:1011020084008317000883162A078312CC008316F3
:101112002B0803182B0A8312CD004C08FF3EFB005C
:101122004D080318013EFF3E03297C08803AFF0068
:1011320083307F02031D9F28E8307B020318C029F9
:101142000F2804303E0603197A1892297C08803A47
:101152008312CA0080304A02031DB3288316031784
:1011620028087B02031CC4287C08803AFF008030D8
:101172007F02031DBE280A307B020318C4280130F7
:10118200FB00003003297C08803AFF0080307F0298
:10119200031DCD280A307B02031C0C297C08803AEF
:1011A200FF0080307F02031DD82864307B020318C1
:1011B2000C29831603133B08A83E84003A088317C0
:1011C20000078312CA00CB01CB0D4A08FF3ECC00B8
:1011D2004B080318013EFF3ECD007C08803ACE004A
:1011E2004D08803A4E02031DF8284C087B02031C6E
:1011F2000529831603133A088312CA00CB014A0851
:10120200FB004B08FC00C0290130FB070318FC0A55
:101212000030FC07C0297C08803AFF0080307F0242
:10122200031D152964307B02031C86297C08803A41
:10123200FF0083307F02031D2029E8307B02031860
:101242008629D2307B067C04031D302901308316A7
:101252000313B4070318B50A0030B507C029E630F6
:101262007B067C04031D3E29013083160313B2075B
:101272000318B30A0030B307C029F0307B067C04A0
:10128200031D4C29013083160313B0070318B10A5A
:101292000030B107C029063083120313CA004A087E
:1012A200A90083163D080A168A15F3230A128A1525
:1012B200903E83163C078312CB004B0884008317B1
:1012C200000883162A078312CC0083162B08031802
:1012D2002B0A8312CD004C08FF3ECE004D080318A6
:1012E200013EFF3ECF007C08803AD0004F08803A92
:1012F2005002031D7E294E087B02031C052983161A
:1013020003132B08FC002A08BF297C08803AFF003F
:1013120083307F02031D8F29E8307B020318C02926
:10132200052908303E0603197A18C2297C08803A3A
:10133200FF0080307F02031DA02902307B02031CC4
:10134200C0297C08803AFF0083307F02031DAB294D
:10135200E9307B020318C0290A3083120313A0006C
:101362000030A1007C08A3007B08A2000A168A159F
:101372009C240A128A152108FC002008FB007A141A
:10138200FA107C08803AFF0080307F02031DCB29CF
:1013920064307B02031C3D2A643083120313A000D5
:1013A2000030A1007C08A3007B08A2000A168A1163
:1013B2001A220A128A152008FE3ECA004A0883161B
:1013C200BD000A308312A9000030AA000A30A00032
:1013D2000030A1007C08A3007B08A2000A168A1133
:1013E2001A220A128A152108AC002008AB000A163C
:1013F2008A1517270A128A152908CA004A0883166D
:10140200BC003D088312CA00CB014A08A0004B0869
:10141200A1006430A2000030A3000A168A159C24A1
:101422000A128A152008CC002108CD0083163C0838
:101432008312CE00CF014E08A0004F08A1000A304F
:10144200A2000030A3000A168A159C240A128A15EB
:1014520020084C07D00021080318210A4D07D100AB
:101462005008C83E8316AA00831251080318013E91
:10147200003E8316AB00792A7C08803AFF00803058
:101482007F02031D462A0A307B02031C792A0A3096
:1014920083120313A0000030A1007C08A3007B0884
:1014A200A2000A168A111A220A128A152008FF3E81
:1014B200CA004A088316BB000A308312CA004A08CF
:1014C200A9007C08A3007B08A2000A30A00000301B
:1014D200A1000A168A111A220A128A1520080A166F
:1014E2008A15F3230A128A15CB004B088316BA0019
:1014F200FA181E2F0A168A1505240A128A151E2F9B
:10150200D73083120313AE009130AF007830B000B1
:101512009130B100C2300A128A114B220A128A1586
:10152200D42FD73083120313AE009130AF00223094
:10153200B0009130B100C2300A128A114B220A1255
:101542008A15D42FF03083120313AE009130AF000E
:10155200B130B0009130B100B2300A128A114B2280
:101562000A128A158316C41CD42F2A308312A000B3
:101572008030A100B2300A168A15E8240A128A15B0
:10158200D42F83160313B401B5013414C414C83024
:101592002F2CF03083120313AE009130AF006D3068
:1015A200B0009130B100B2300A128A114B220A12F5
:1015B2008A158316C418D42F2A308312A0008030D3
:1015C200A100B2300A168A15E8240A128A15D42F0D
:1015D200FD3083120313CA004A088316C405C930BA
:1015E2002F2CD73083120313AE009130AF00073097
:1015F200B0009130B100C2300A128A114B220A1295
:101602008A15D42F963083120313AE009130AF00A7
:10161200831635088312B100831634088312B00092
:10162200B2300A128A114B220A128A15D42FD230F2
:101632002F2CD73083120313AE009130AF00E93064
:10164200B0009030B100C2300A128A114B220A1245
:101652008A15D42FF03083120313AE009130AF00FD
:10166200ED30B0009130B100B2300A128A114B2233
:101672000A128A158316C41DD42F2A308312A000A1
:101682008030A100B2300A168A15E8240A128A159F
:10169200D42F83160313320833040319542B300852
:1016A2003104031D5C2B0530B2000030B30005305D
:1016B200B0000030B100C415DC302F2CF0308312A2
:1016C2000313AE009130AF00E130B0009130B100B1
:1016D200B2300A128A114B220A128A158316C419D1
:1016E200D42F2A308312A0008030A100B2300A1613
:1016F2008A15E8240A128A15D42FF73083120313AD
:10170200CA004A088316C405DD302F2CD730831255
:101712000313AE009130AF00DA30B0009030B10068
:10172200C2300A128A114B220A128A15D42F9F3014
:1017320083120313AE009130AF0083163308831275
:10174200B100831632088312B000B2300A128A1135
:101752004B220A128A15D42FD73083120313AE00FC
:101762009130AF00AA30B0009030B100C2300A12FE
:101772008A114B220A128A15D42F9F308312031327
:10178200AE009130AF00831631088312B100831688
:1017920030088312B000B2300A128A114B220A12A8
:1017A2008A15D42FD73083120313AE009130AF00C5
:1017B200BA30B0009030B100C2300A128A114B2206
:1017C2000A128A15D42FF03083120313AE0091301F
:1017D200AF00ED30B0009130B100B2300A128A1180
:1017E2004B220A128A158316441ED42F2A308312E2
:1017F200A0008030A100B2300A168A15E8240A122D
:101802008A15D42F831603134416FA302F2CF03086
:1018120083120313AE009130AF00E130B00091307B
:10182200B100B2300A128A114B220A128A158316AB
:10183200441AD42F2A308312A0008030A100B23083
:101842000A168A15E8240A128A15D42FEF30831259
:101852000313CA004A088316C405FB30FB0000309C
:10186200D02ED73083120313AE009130AF008230F6
:10187200B0009130B100C2300A128A114B220A1212
:101882008A15D42FD73083120313AE009130AF00E4
:101892001530B0009130B100C2300A128A114B22C9
:1018A2000A128A15D42FF83083120313AE00903037
:1018B200AF00CD30B0009130B100831625088312FD
:1018C200CA00CB014A08B2004B08B300D230B400C0
:1018D2009130B500831626088312CC00CD014C0846
:1018E200B6004D08B700B2300A128A114B220A1212
:1018F2008A15D42FD73083120313AE009130AF0074
:101902006230B0009130B100C2300A128A114B220B
:101912000A128A15D42F2F3083120313AE0091308E
:10192200AF00A830B0009130B10003108619031443
:10193200003003180130CA00CB014A08B2004B083C
:10194200B3000310061A0314003003180130CC0050
:10195200CD014C08B4004D08B5000310861A0314DB
:10196200003003180130CE00CF014E08B6004F08F8
:10197200B7000310061B0314003003180130D00017
:10198200D1015008B8005108B900B2300A128A11C8
:101992004B220A128A15D42F0A3083120313A00095
:1019A2000030A1007C08A3007B08A2000A168A115D
:1019B2001A220A128A152108FC002008FB00D42FE3
:1019C200D73083120313AE009130AF005630B0000F
:1019D2009130B100C2300A128A114B220A128A15C2
:1019E200D42F2F3083120313AE009130AF008C300E
:1019F200B0009130B1008316C31D012D0130022DBC
:101A020000308312CA00CB014A08B2004B08B3006F
:101A12008316431D0E2D01300F2D00308312CC0092
:101A2200CD014C08B4004D08B5008316C31C1B2D14
:101A320001301C2D00308312CE00CF014E08B600BB
:101A42004F08B7008316431C282D0130292D003082
:101A52008312D000D1015008B8005108B900B23049
:101A62000A128A114B220A128A15D42FD7308312F6
:101A72000313AE009130AF00C030B0009130B1001E
:101A8200C2300A128A114B220A128A15D42FD73079
:101A920083120313AE009130AF00CA30B000903011
:101AA200B100C2300A128A114B220A128A15D42FAF
:101AB200F03083120313AE009130AF00ED30B0006E
:101AC2009130B100B2300A128A114B220A128A15E1
:101AD2007A1DD42F2A30A0008030A100B2300A161D
:101AE2008A15E8240A128A15D42F7A150030831237
:101AF2000313A9000030A8000030A7000030A600A0
:101B0200831644088312CA004A08AA000A168A15D4
:101B120093260A128A150030A9000030A80000306E
:101B2200A7000130A600831635088312CA004A08AE
:101B3200AA000A168A1593260A128A150030A900ED
:101B42000030A8000030A7000230A6008316340837
:101B52008312CA004A08AA000A168A1593260A1294
:101B62008A150030A9000030A8000030A700033019
:101B7200A600831633088312CA004A08AA000A166E
:101B82008A1593260A128A150030A9000030A8008F
:101B92000030A7000430A600831632088312CA0060
:101BA2004A08AA000A168A1593260A128A150030D4
:101BB200A9000030A8000030A7000530A600831657
:101BC20031088312CA004A08AA000A168A15932607
:101BD2000A128A150030A9000030A8000030A700C0
:101BE2000630A600831630088312CA004A08AA00EB
:101BF2000A168A1593260A128A159030CE2ED730ED
:101C020083120313AE009130AF007730B0009030F2
:101C1200B100C2300A128A114B220A128A15D42F3D
:101C2200D73083120313AE009130AF00ED30B00015
:101C32009130B100C2300A128A114B220A128A155F
:101C42007A1DD42F2A30A0008030A100B2300A16AB
:101C52008A15E8240A128A15D42F7A1583160313DB
:101C6200C401B401B501B201B301B001B1019A30AE
:101C7200CE2ED73083120313AE009130AF008830DE
:101C8200B0009030B100C2300A128A114B220A12FF
:101C92008A15D42FD73083120313AE009130AF00D0
:101CA200ED30B0009130B100C2300A128A114B22DD
:101CB2000A128A157A1DD42F2A30A0008030A10082
:101CC200B2300A168A15E8240A128A15D42F7A1518
:101CD200003083120313A9000030A8000030A700CF
:101CE2000030A600AA010A168A1593260A128A153E
:101CF2000030A9000030A8000030A7000130A60083
:101D0200AA010A168A1593260A128A150030A9001A
:101D12000030A8000030A7000230A600AA010A166F
:101D22008A1593260A128A150030A9000030A800ED
:101D32000030A7000330A600AA010A168A159326CE
:101D42000A128A150030A9000030A8000030A7004E
:101D52000430A600AA010A168A1593260A128A15C9
:101D62000030A9000030A8000030A7000530A6000E
:101D7200AA010A168A1593260A128A150030A900AA
:101D82000030A8000030A7000630A600AA010A16FB
:101D92008A1593260A128A15A430FB000130FC0032
:101DA200D42F993083120313AE009030AF00831604
:101DB20039088312B000B101B01BB1038316380891
:101DC2008312B200B301B21BB303C2300A128A11EA
:101DD2004B220A128A153C30AE009130AF00E5303A
:101DE200B0009130B1000330CA004A08A000831647
:101DF20043080A168A1530240A128A152008B200EE
:101E02002108B300C730B4009130B5000430CB00D4
:101E12004B08A000831643080A168A1530240A12BA
:101E22008A152008B6002108B700B2300A128A11BA
:101E32004B220A128A15FA14D42F7C08003A03198D
:101E42003B2F013A0319852F063A0319992F0F3AAE
:101E52000319A12F013A0319AF2F023A0319BA2F1E
:101E6200073A0319BF2F033A0319C72F1F3A031961
:101E7200CC2FD22E7B08023A0319812A013A031988
:101E8200322C073A0319372D103A0319922A013AD4
:101E92000319F22A033A03191A2B013A0319872B61
:101EA2000F3A0319AD2B013A0319D32B073A031941
:101EB200432C013A03197B2C3F3A0319E12C083ACF
:101EC2000319482D013A0319002E033A03193A2E39
:101ED200E23A0319A32A013A0319CA2A1B3A03193F
:101EE200032B0E3A03192B2B013A03195F2B3B3AB2
:101EF2000319982B163A0319BE2B0A3A0319E42B3D
:101F0200013A0319082CD22E7B082C3A0319542CBF
:101F12001A3A03198C2C763A0319F22CD03A031987
:101F2200592D0A3A0319112E3E3A03194B2ED22E7D
:101F32007B08D03A0319C22A0A3A0319E92AD22E97
:101F42007B08343A0319182BAC3A03194A2B3A3A54
:101F520003197E2B5E3A0319D42FD22E7B08603AE6
:101F62000319D42FA43A0319032C0A3A0319272C74
:101F7200D22E7B08B83A0319D42FD22E7B081C3AF2
:101F82000319CD2C9C3A0319CD2CD22E7B08A03AF2
:101F92000319762DD22E7B08043A03192E2E6C3AA1
:101FA2000319682ED22E83120313AC0100300A16D5
:101FB2008A1549240A128A15C23083120313AE000D
:101FC2000130AF000A168A15B1270A128A15AC0130
:101FD200AC0A00300A168A1549240A128A15B23050
:101FE20083120313AE000130AF000A168A15B1271F
:101FF2000A128A15B2300A168A15AA230800FF1B94
:102002000A2883137F1883170008840A0319FF0A1A
:1020120008007F087F398A000408840A0319FF0A2E
:1020220082004134A0344234A134E0344534A33434
:10203200A434A534A6344B34A7344D3448344F3439
:10204200A834503443345434A934AA345834E134D3
:10205200AB34AC34E234AD34AE346234AF34B03489
:10206200B1346134B234B334B434E3346534B634A5
:10207200B734B834B934BA34BB34BC34BD346F3439
:10208200BE3470346334BF347934E4347834E534A4
:10209200C034C134E634C234C334C434C534C63463
:1020A200C734013400340A34003464340034E83470
:1020B20003341034273400340034003400348034C4
:1020C2003F34F034FF34BE34E234A9343E34833436
:1020D2007634BE34AE342B343E343C34C334BD3457
:1020E200D23413343D347834D334BB34D134E13474
:1020F200F034EE34F1342034ED34E034F134F2349F
:10210200F0342E342034CE34C734D3340034D134B6
:10211200E134F034EE34F1342034ED34E034F1348F
:10212200F234F0342E342034CF34C734D334003474
:10213200D234E234ED343A34253433346434203446
:10214200D234ED34E034F0343A3425343334643468
:102152000034C434CE3432342D34D234E034E93451
:10216200EC34E534F0342034E234FB34EA34EB343A
:102172000034C434CE3432342D34C234EA34EB3435
:102182002034EF34EE342034F234E534EC34EF34DE
:102192000034D134EE34F534F0342E34F234E534F4
:1021A200EA342E34ED34E034F134F234F0342E34A7
:1021B2000034C434CE3432342D34D234E034E934F1
:1021C200EC34E534F0342034E234EA34EB340034D5
:1021D200C434CE3432342D34C234EA34EB342034B5
:1021E200F234E034E934EC34E534F03400342534AC
:1021F2003334733425343334753420342034253465
:10220200333473342534333475340034C434CE3427
:1022120031342D34C234F034E534EC34FF3420341C
:10222200E834EC34EF340034C034ED34E034EB34D1
:10223200EE34E3342E342034E234E234EE34E43447
:102242000034C434CE3431342D34C834EC34EF3459
:102252002F34EF34EE34F134F23400342534313497
:10226200323473342534643425346434253464348C
:10227200253464340034253433347334253434340F
:10228200733425343534733425343434753400349E
:10229200C734E034E334F034F334E734EA34E0347E
:1022A2002E342E342E342E340034D634E834F43422
:1022B200F0342E342034E234FB34E234EE34E434AD
:1022C2000034D634E834F434F0342E342034E2349A
:1022D200E234EE34E4340034CF34EE34F134F23408
:1022E200EE34FF34ED34ED34FB34E9340034CD34D4
:1022F200E034F134F234F034EE34E934EA34E834E0
:102302000034CF34EE34EA34E034E734E034ED34F0
:10231200E834FF340034C4342E34E234FB34F53470
:10232200EE34E434FB343A34003425343434643447
:102332002034F134E534EA342E3400342534343494
:1023420064342034EC34E834ED342E340034C434B4
:102352002E34E234F534EE34E434FB343A340034CF
:10236200C834EC34EF34F334EB34FC34F13400345D
:1023720028346E3475346C346C3429340034CF34E0
:10238200E034EC34FF34F234FC340034CD34C03465
:10239200C334D0343A340034C034ED3431343A34B6
:1023A20000344134ED3432343A340034253431349B
:1023B200363473340034C234FB34EA34EB34003440
:1023C200CD34E534F2340034C434D3343A340034F6
:1023D200C234EA34EB340034C434E03400342534FB
:0423E200733400341C
:1023F0000234013402340134013402340134013432
:102400000134003400340034013401340134003428
:10241000003400340034003400340034003400341C
:1024200004340634033403340034003400340034FC
:1024300000340034A601A11F242AA009A109A00A82
:102440000319A10AA601A60AA31F2F2AA209A309FC
:10245000A20A0319A30A0130A4002408A606A701B2
:10246000A801200821040319662AA501A50AA11BB9
:10247000452A01300310A00DA10DFF3E031D3A2A8D
:102480000130A4002408A507372A01300310A70D46
:10249000A80DFF3E031D462A21082302031D522AD0
:1024A00020082202031C5B2A2008A2022108031C28
:1024B000A303A302271401300310A10CA00CFF3EBC
:1024C000031D5C2A0130A502031D452A26080319B5
:1024D0006E2AA709A809A70A0319A80A2808A100B3
:1024E0002708A0000800D10000308312B800803017
:1024F000B900BF30BA00831651080A168A15632442
:102500000A168A112808D4002908D5002A08D600FE
:102510000030D7007F30D8004330D9000A168A1126
:102520005B250A168A115408BB005508BC005608E2
:10253000BD000A128A1163250A168A11380883160B
:10254000CE00831239088316CF0083123A0883160F
:10255000D0004E088312AB0083164F088312AC00E4
:10256000831650088312AD004030A8001C30A9002B
:102570004630AA000A128A114B270A168A11280827
:10258000E4002908E5002A08E6000A168A11C92491
:102590006508ED006408EC00080023080319D52A3B
:1025A000220821042004031DE82A0030A000003086
:1025B000A1000030A20008000130A5002508A307F3
:1025C00001300310A20CA10CA00CFF3E031DE12A58
:1025D000FE3022050319032BDC2A0130A500250853
:1025E000A3070130A007003003180130A107003015
:1025F00003180130A20701300310A20CA10CA00C9B
:10260000FF3E031DFC2AFF3022050319162BED2A7D
:1026100002302302031C182B0130A30201300310E7
:10262000A00DA10DA20DFF3E031D0F2BA11F082B16
:102630002318202BFF30A0057F30A105FF30A20515
:102640000310A30C2308A500A601A7011030031056
:10265000A50DA60DA70DFF3E031D272B2508A004E1
:102660002608A1042708A204240803190800A217B9
:102670000800823083120313AF00DD30AE00AE0BD2
:102680003F2BAF0B3F2B03300A168A15A5250A16E0
:102690008A110C3083120313AF00AE30AE00AE0BC4
:1026A0004F2BAF0B4F2B000003300A168A15A525C0
:1026B0000A168A11843083120313AE00AE0B5E2B10
:1026C000000003300A168A15A5250A168A11033060
:1026D00083120313AF009730AE00AE0B6D2BAF0B20
:1026E0006D2B02300A168A15A5250A168A110330A9
:1026F00083120313AF009730AE00AE0B7D2BAF0BF0
:102700007D2B83120313A80128300A168A157E2414
:102710000A168A11033083120313AF009730AE00FC
:10272000AE0B902BAF0B902B83120313A8010C3030
:102730000A168A157E240A168A110A168A15052495
:102740000A168A1183120313A80106300A168A1585
:102750007E240A168A11033083120313AF009730C8
:10276000AE00AE0BB12BAF0BB12B080083160514D6
:10277000851405118515051285120610861006119F
:102780008615061686160617861707108710071176
:102790008711071287120717871783128501860191
:1027A000870183168117011381120112811101150E
:1027B000811401148B170B178B120B128B150C172E
:1027C0008C160C128C118C140C140D108312901298
:1027D0001016901110119010101012179216121658
:1027E0009215121592141210C3309100831694138F
:1027F00014139412141294111411941014108312BF
:10280000941314139412141294111411941014109C
:102810008316981318139816181218159810181074
:102820008312981718139812181618119810181068
:102830008316181D1D2C0C301E2C0230990083129B
:102840009F131F179F121F169F151F111F1083160E
:102850001F159F101F107F308312A00020088316C1
:10286000C200C1011A3083120313A100F730A00087
:10287000A00B382CA10B382C3D2C08000330CC00C9
:102880004C08A9004A080A168A15F3230A168A1169
:10289000CD004D084807CF004908CE000318CE0AE6
:1028A000CD1BCE034E08D0005008FF004F08840017
:1028B0000A168A1100200A168A11D1000A168A11F6
:1028C00000200A168A11D2000A168A1100200A1660
:1028D0008A11D3004A084B040319C22C0330CC00E0
:1028E0004C08A900FF30CA070318CB0AFF30CB07FA
:1028F0004A080A168A15F3230A168A11CD004D08D4
:102900004807CF004908CE000318CE0ACD1BCE03DE
:102910004E08D0005008FF004F0884000A168A11A4
:1029200000200A168A11B8000A168A1100200A1619
:102930008A11B9000A168A1100200A168A11BA00F3
:102940005108A8005208A9005308AA004508AB0086
:102950004608AC004708AD000A128A114B270A1638
:102960008A112808BB002908BC002A08BD000A12E9
:102970008A1163250A168A113808D1003908D20055
:102980003A08692C5108C5005208C6005308C70010
:1029900008006408E8006508E9006608EA0003101A
:1029A000690D6A0DEB006B088316CD004D08031D01
:1029B000E32C00308312E7000030E6000030E50031
:1029C0000030E400080083126408E8006508E900AC
:1029D0006608EA0017300310EA0CE90CE80CFF3E29
:1029E000031DEB2C6808EB006B088316C8008312EC
:1029F000E517FF30E405FF30E5050030E605640823
:102A00008316C900831265088316CA0083126608FC
:102A10008316CB00CC018E30CD02CD1F262D4D0864
:102A2000803A8F3E031CD92C01300310CC0CCB0C08
:102A3000CA0CC90CFF3E031D152D01308312E8009E
:102A400068088316CD0703193D2D142D18304D024B
:102A50000318D92C4D0803193D2D01308312E800CD
:102A600003108316C90DCA0DCB0DCC0D8312E80BD4
:102A7000302D01308316CD022A2D480803194B2D25
:102A8000C909CA09CB09CC09C90A0319CA0A031919
:102A9000CB0A0319CC0A4C088312E70083164B08B3
:102AA0008312E60083164A088312E500831649085C
:102AB0008312E40008005708DA005808DB005908C0
:102AC000DC0003105B0D5C0DDD005D08E2006208B8
:102AD000031D712D0030D4000030D5000030D60029
:102AE00008005408DA005508DB005608DC00031023
:102AF0005B0D5C0DDD005D08E3006308031D872DA1
:102B00000030D4000030D5000030D600080000307E
:102B1000DF000030E0000030E10089306307DA00B8
:102B20005A08E2025908DA005A08E3005608DA00A7
:102B30005A08E3068030DA005A08E305D817FF3058
:102B4000D705FF30D8050030D905D517FF30D4059B
:102B5000FF30D5050030D6051830DA005A08DE00FF
:102B600001300310DF0DE00DE10DFF3E031DB12D1F
:102B700056085902031DC22D55085802031DC22DC7
:102B800054085702031CCF2D5408D7025508031CC4
:102B9000550FD8025608031C560AD9025F1401309B
:102BA0000310D70DD80DD90DFF3E031DD02D0130D8
:102BB000DE02031DB02D5F08A0006008A1006108BF
:102BC000A2006208DA005A08A3006308DB005B0871
:102BD000A4000A168A11CD222008D4002108D500AD
:102BE0002208D600080083120313861F082E7D08D2
:102BF00003197A1A082E83164208831281000B11DA
:102C00008B168F018E017A16FD01FD0A1014080043
:102C1000861B222E7D0303197A1E222E10100A30E5
:102C20000F02031C1F2E0D300F0203181F2E02303F
:102C3000F0007008FD0083128F018E0108007A12E7
:102C4000FD010800861F2F2E02307D0603197A1E13
:102C50002F2E10140330F0007008FD000800861BB2
:102C6000702E03307D0603197A1E702E101002306C
:102C7000F0007008FD002030831640020318612E1A
:102C80003F08A03E840003108313800D023083129E
:102C90000F02031C502E83163F08A03E8400001430
:102CA00007308316400603195D2E0F3040060319C6
:102CB0005D2E17304006031D612E0130F0007008B4
:102CC000BF070130F0007008C00720304006031D28
:102CD0001B2E0430F0007008FD00C001BF011B2E48
:102CE000861F7D2E04307D0603197A1E7D2E10145A
:102CF0000530F0007008FD000800861B0800053054
:102D00007D06031D08007A1E0800101002300F0215
:102D1000031C952E05300F020318952EFD017A1223
:102D2000FA158316C1010B118B120330F100973095
:102D3000F000F00B992EF10B992E9E2E08008B19A6
:102D40000B1CA82E0A168A11F3250A168A110B10DD
:102D50008B1A0B1DC32E83160313420883128100A6
:102D6000033083164106031DBD2EC101FD017A12F9
:102D7000FA11FA12831210108B120B110130F600A7
:102D800076088316C107831603130C1CCC2E8312FE
:102D90000C1CCC2E10100C1083168C1C0A2F8312C6
:102DA0008C1C0A2F0130F60076088316C5071C30EC
:102DB0004502031C082F0130B6070318B70A00307C
:102DC000B707C501FA173C30F0000030F1003708B2
:102DD000F3003608F2000A168A1541250A168A11F0
:102DE0007008710403197A171030F0000E30F100EA
:102DF0003708F3003608F2000A168A1541250A162C
:102E00008A1170087104031D082F6B14B601B701F5
:102E100083128C1083160C1F452F83120C1F452F15
:102E2000233083162402031C1C2F2E302402031887
:102E30001C2FBE01BE0A432F55302402031C262F2F
:102E40006A3024020318262F0230392F82302402E0
:102E5000031C302F9C3024020318302F0430392FEC
:102E6000BE302402031C3D2FD330240203183D2F13
:102E70000830F6007608BE00432FE6302402031C1B
:102E8000432FBE017A1083120C1379088A00780848
:102E90008400770E8300FE0E7E0E0900E500650AB1
:102EA000031D542F0030080065080A168A1173228A
:102EB0000A168A116D088316D30083126C088316D4
:102EC000D2000A168A15BD240A168A115208DC009F
:102ED0005308DD005408DE0040308312D7001C3058
:102EE000D8004630D90083165C088312D4008316BC
:102EF0005D088312D50083165E088312D6000A1679
:102F00008A115B250A168A1154088316D60083128B
:102F100055088316D700831256088316D8000A1264
:102F20008A1168260A168A115608DF005708E00041
:102F30005808E1005F088312D700831660088312E7
:102F4000D800831661088312D9004830D40073304A
:102F5000D5004530D6000A168A115B250A168A115B
:102F60005408BB005508BC005608BD00CF30B8005F
:102F70005B30B9003B30BA000A128A1163250A1689
:102F80008A1138088316E200831239088316E30099
:102F900083123A088316E40000308312D700803091
:102FA000D8003F30D900831662088312D4008316FC
:102FB00063088312D500831664088312D6000A16AC
:102FC0008A115B250A168A115408BB005508BC00FB
:102FD0005608BD009330B8008830B900C330BA003D
:102FE0000A128A1163250A168A113808E400390882
:102FF000E5003A08E6000A168A11C92464080800A8
:10375400A00020088400831780010800A00020082E
:103764009300831614180800B32B64008001840AA4
:103774000406031900340406B82B8312A10021089F
:103784000A168A15B0238312130808000A168A152C
:10379400D123A4002408A5002508013908008512B6
:1037A40005300A168A15B0230A168A1500300A163F
:1037B4008A15BF23A2002208A30085162308080047
:1037C4007E088A007F088200E2230A168A15800098
:1037D400840A04087D0603190034FF0A0319FE0A4B
:1037E400E62B8312AC00AB012C1CFC2B2908AA008D
:1037F4002A08AB070310A90D0310AC0C2C08031DF9
:10380400F62B2B08080083120313A80101300A16B3
:103814008A157E240A168A15053083120313AD0017
:103824002530AC00AC0B142CAD0B142C192C080057
:1038340083160313071687128711851283128516C0
:1038440083169413141714108312941314139416D8
:103854001412941114119410141408008312A20069
:103864000130A100200A382C0310A10DFF3E031DD6
:10387400362C210822050319442CE930A00091308C
:10388400A1000800DC30A0009130A1000800AD00C8
:103894005A2CA8012D0880380A168A157E2408009F
:1038A400A8012D08403E80380A168A157E24080097
:1038B4002C08003A03194B2C013A0319522C622CA0
:1038C40008008312AF002F08AB00AC01AD012B0838
:1038D400A0002C08A1002D08A2008E30AE002E08F6
:1038E400A300A4010A168A11CD222008A8002108E9
:1038F400A9002208AA000800AB002B08A900290887
:10390400AA00F030A9002908AA05AB0EF030AB05D7
:10391400280803198F2C2B152A152A080A168A152C
:10392400A5250A168A15831203132B080A168A156D
:10393400A5250800A401A501201CA62C2208A40783
:103944000318A50A2308A50701300310A20DA30D2F
:10395400FF3E031DA72C01300310A10CA00CFF3E59
:10396400031DAE2C20082104031D9E2C2508A10054
:103974002408A0000800D501D31FC72CD209D309FD
:10398400D20A0319D30AD501D50A52088312A0001A
:10399400831653088312A100A2018E30EE006E0834
:1039A400A300831655088312EF006F08A4000A16BB
:1039B4008A11CD2220088316D2008312210883168F
:1039C400D300831222088316D4000800A40024081C
:1039D400A2002208A3002308840000080319012D73
:1039E4000130A2002208A307ED2C0130A200220816
:1039F400A3070130A0070318A10A0030A10721087A
:103A0400FF00200884000A168A1100200A168A156D
:103A1400A2002308840022088317800000080319E9
:103A24000800F72CA21F232D2008003CA000210829
:103A3400031C210F003CA1002208031C220F803C20
:103A4400A200A51F322D2308003CA3002408031C58
:103A5400240F003CA4002508031C250F803CA5006E
:103A64008030A2068030A50625082202031D080026
:103A740024082102031D08002308200208007008FE
:103A8400710403196E2DF501F50AF11B552D013052
:103A94000310F00DF10DFF3E031D4A2D0130F4001B
:103AA4007408F507472D71087302031D5B2D700818
:103AB4007202031C632D7008F2027108031CF303E5
:103AC400F30201300310F10CF00CFF3E031D642DD2
:103AD4000130F502031D552D7308F1007208F00042
:103AE4000800280829040319A02DAD01AD0AA91B5B
:103AF400872D01300310A80DA90DFF3E031D7C2D59
:103B04000130AC002C08AD07792D29082B02031DC8
:103B14008D2D28082A02031C952D2808AA0229089D
:103B2400031CAB03AB0201300310A90CA80CFF3E2D
:103B3400031D962D0130AD02031D872D2B08A9000E
:103B44002A08A800080083120313A70000300A16ED
:103B54008A15D4260A168A15AF2D83120313271C3F
:103B6400A718B82D270803390319BF2D0310A70D73
:103B74000310A70D0310A70DC12D0310A70C2715C3
:103B840027080A168A15D4260A168A15C92DFB3069
:103B940083120313A6002608A70527080A168A1508
:103BA400D4260A168A15203083120313A600A60B06
:103BB400D92D000008000A168A15C8230A168A158A
:103BC400013A0319DD2D8512A91BF82D2908031DBF
:103BD400FA2D2808031DFA2D01302702031DF62DA6
:103BE40000302602031DF62D0318FA2D0330FB2D99
:103BF4000B3083120313AB000030AC002B080A1601
:103C04008A15B0230A168A15831226080A168A15FD
:103C1400B0230A168A1500300A168A15BF23AA0093
:103C24002A08AD0085162D080800A501A601200864
:103C3400210403194E2EA701A70AA11B2D2E013022
:103C44000310A00DA10DFF3E031D222E0130A40080
:103C54002408A7071F2E01300310A50DA60DFF3E53
:103C6400031D2E2E21082302031D3A2E20082202B2
:103C7400031C432E2008A2022108031CA303A30251
:103C8400251401300310A10CA00CFF3E031D442E8B
:103C94000130A702031D2D2E2608A1002508A0002F
:103CA4000800220821042004031D652E2308840033
:103CB40083138001840A80010030A0000030A10039
:103CC4000030A200080022087F39A400A5010310D7
:103CD400A40DA50D23088400240883138000840AFE
:103CE40025088000210D210D0139A400A501230818
:103CF400840024088004840A25088004230884009E
:103D040082308007840F00080318000AFF00FF3088
:103D14007F0780008403220880393F38A200A11362
:103D240008000A168A15C8230A168A15013A0319C7
:103D3400932E851206300A168A15B0230A168A15A0
:103D4400831285168512A91BB72E2908031DB92EC7
:103D54002808031DB92E01302702031DB52E00309B
:103D64002602031DB52E0318B92E0230BA2E0A30CE
:103D740083120313AB000030AC002B080A168A151B
:103D8400B0230A168A15831226080A168A15B02348
:103D94000A168A1583122A080A168A15B023831272
:103DA4008516080083120313A200831643088312A6
:103DB400A000A1012008A3002108A40008300310DA
:103DC400A30DA40DFF3E031DE12E2208A000A101B6
:103DD4002008A3042108A404A501231CF32E86149F
:103DE400F42E8610F52EF62EF72E0130FF008312E6
:103DF4000313240DA40CA30CFF0BF92E0615022F9C
:103E0400032F042F8312031306110130A00020088E
:103E1400A50710302502031CEF2E0614112F122FB4
:103E2400132F8312031306100800AF01AC1F212FB8
:103E3400AB09AC09AB0A0319AC0AAF01AF0AAA1F5C
:103E4400282FA909AA09A90A0319AA0A29082A04D0
:103E54000319552FAE01AE0AAA1B3C2F01300310E3
:103E6400A90DAA0DFF3E031D312F0130AD002D0811
:103E7400AE072E2F2A082C02031D422F29082B02DD
:103E8400031C4A2F2908AB022A08031CAC03AC020A
:103E940001300310AA0CA90CFF3E031D4B2F013067
:103EA400AE02031D3C2F2F0803195D2FAB09AC098B
:103EB400AB0A0319AC0A2C08AA002B08A9000800B5
:103EC40083129F121F129F111F14033083120313B6
:103ED400A1009730A000A00B6D2FA10B6D2F8312B2
:103EE40003131F151F19742F1F101E08A00020088C
:103EF4008316A40083129F121F129F151F140330F0
:103F040083120313A1009730A000A00B872FA10BED
:103F1400872F831203131F151F198E2F1F101E08BE
:103F2400A00020088316A50083129F121F169F1558
:103F34001F14033083120313A1009730A000A00BB9
:103F4400A12FA10BA12F831203131F151F19A82F33
:103F54001F101E08A00020088316A6000800B20146
:103F64008312031332082E0784002F0803182F0A24
:103F7400FF000A168A1100200A168A15003A03194E
:103F8400080010303206031DCF2FAC01AC0A0030FC
:103F94000A168A1549240A168A158312031332084D
:103FA4002E0784002F0803182F0AFF000A168A110F
:103FB40000200A168A15B0003008B1000130B000A4
:103FC4003008B207C0303102031CF72F3108523ECB
:103FD40084008F300318013EFF000A168A11002066
:103FE4000A168A15B0003008B100A801A80A3108E1
:0C3FF4000A168A157E240A168A15B22FC0
:02400E00BA3FB7
:00000001FF
